:020000040800F2
:10000000D8250020991300088507000887070008F5
:100010008B0700088F070008930700080000000006
:10002000000000000000000000000000970700082A
:1000300099070008000000009B0700089D070008C2
:10004000B3130008B3130008B3130008B313000878
:10005000B3130008B3130008B3130008B313000868
:10006000B3130008B3130008B3130008B313000858
:10007000B3130008B3130008B3130008B313000848
:10008000B3130008B3130008B3130008B313000838
:10009000B3130008B3130008B3130008B313000828
:1000A000B3130008B3130008B3130008B313000818
:1000B000B3130008DB0A0008B3130008B3130008E9
:1000C000B3130008B3130008B3130008B3130008F8
:1000D000B3130008B313000833120008B313000869
:1000E000B3130008B3130008B3130008B3130008D8
:1000F000B3130008B3130008B3130008B3130008C8
:10010000B3130008B3130008B3130008B3130008B7
:10011000B3130008B3130008B3130008B3130008A7
:10012000B3130008B3130008B3130008B313000897
:10013000DFF810D003F03AF90048004791060008B4
:10014000AFF30080D825002070B50546FE48D0F8F2
:100150001022FE480168284690470646FA488479EE
:10016000012E47D1C4EB0410C0EBC410F84901EBD9
:1001700080004470F448007BC4EB0411C1EBC4114F
:10018000F34A02F8210000202BE0EF49103151F82A
:100190003020C4EB0411C1EBC411ED4B03EB810122
:1001A000091D41F82020E849103101EBC0010A790E
:1001B000C4EB0411C1EBC41103EB810101F58271A1
:1001C0000A54E149103101EBC001CA88C4EB0411A3
:1001D000C1EBC41103EB810101F5A27121F81020DC
:1001E000401CC4EB0411C1EBC411D94A12F8211010
:1001F0008142CADC70BD10B502460023002003E036
:10020000145C1C44E3B2401C4C1E8442F8DC481EC3
:10021000105C984201D1012010BD0020FCE730287D
:1002200005DB392803DCA0F13001C8B20CE041281D
:1002300003DB5A2801DCC0B206E0612803DB7A2820
:1002400001DCC0B200E0FF20704708B5BE488079ED
:10025000C04908700026B14600250024A2460020AF
:1002600000908346DFE0BB490978C1EB0112C2EB85
:10027000C111B74A02EB8101B1F88C0102F03DFED9
:100280008046B4480078C0EB0012C2EBC010B04A00
:1002900002EB8000D0F89410404602F08FFD074634
:1002A000002102F043FEDDD03146ABA003F04AF955
:1002B0004946ABA003F046F9002545E0A548007883
:1002C000C0EB0011C1EBC010A14901EB800000F5AB
:1002D0008270405DFF2836D0691CA4A003F032F97B
:1002E0009C490978C1EB0112C2EBC111984A02EB9B
:1002F0008101091D51F8250002F004FE07463A4627
:100300000B469CA003F01EF992480078C0EB001247
:10031000C2EBC0108E4A02EB800000F58270415D96
:1003200097A003F00FF98B480078C0EB0012C2EBE6
:10033000C010874A02EB800000F5A27030F815105B
:1003400091A003F0FFF86D1C402DB7DB009800284A
:1003500035D1B9F1060F25D101200090BBF1000F76
:1003600061D1032E13D14FF0000A0AE0002402E00D
:1003700000F033FD641CFA2CFADD00F084FD0AF174
:10038000010ABAF1030FF1DB0026B3464BE000246B
:1003900002E000F0F8FC641CFA2CFADD00F073FDBA
:1003A000761C40E0002402E000F041FD641CB4F53E
:1003B000FA7FF9DD00F079FD09F1010933E0B9F1C7
:1003C000000F24D100200090BBF1000F2BD1032E91
:1003D00012D182460AE0002402E000F0FEFC641C18
:1003E000FA2CFADD00F04FFD0AF1010ABAF1030F11
:1003F000F1DB0026B34616E0002402E000F0C3FC67
:10040000641CFA2CFADD00F03EFD761C0BE00024A3
:1004100002E000F022FD641CB4F5FA7FF9DD00F083
:1004200044FDA9F101091EE708B54748807949490B
:1004300008700026B14600250024A2460020009046
:10044000834624E143490978C1EB0112C2EBC11193
:100450003F4A02EB8101B1F88C0102F04EFD80466B
:100460003C480078C0EB0012C2EBC010384A02EBE7
:100470008000D0F89410404602F0A0FC074600210E
:1004800002F054FDDDD0314642A003F05BF849464E
:1004900042A003F057F8002545E02E480078C0EB55
:1004A0000011C1EBC0102A4901EB800000F58270F9
:1004B000405DFF2836D0691C3CA003F043F8254975
:1004C0000978C1EB0112C2EBC111214A02EB810193
:1004D000091D51F8250002F015FD07463A460B4666
:1004E00034A003F02FF81B480078C0EB0012C2EBD9
:1004F000C010174A02EB800000F58270415D2FA00A
:1005000003F020F813480078C0EB0012C2EBC010D3
:100510000F4A02EB800000F5A27030F8151029A0F8
:1005200003F010F86D1C402DB7DB009800287AD13D
:10053000B9F1060F69D101200090BBF1000F58D12D
:10054000032E57D142E000003C00002000000020B4
:1005500078020020040000207B2758273A256400F9
:100560002C2759273A25647D0D0A00007B276E272A
:100570003A2564002C2764273A252E3066000000B7
:100580002C277A273A2564002C2773273A25647D87
:100590000D0A0000582C2564000000002C592C2561
:1005A000642C642C642C7A2C7A0D0A006E2C256441
:1005B000000000002C642C252E3066002C7A2C259F
:1005C000640000002C732C25640D0A004FF0000A13
:1005D0000AE0002402E000F000FC641CFA2CFADDC2
:1005E00000F051FC0AF1010ABAF1030FF1DB002619
:1005F000B3464CE0002402E000F0C5FB641CFA2C7A
:10060000FADD00F040FC761C41E0002403E00AE043
:1006100000F00DFC641CB4F5FA7FF9DD00F045FC38
:1006200009F1010933E0B9F1000F24D10020009055
:10063000BBF1000F2BD1032E12D182460AE0002419
:1006400002E000F0CAFB641CFA2CFADD00F01BFC8F
:100650000AF1010ABAF1030FF1DB0026B34616E0F6
:10066000002402E000F08FFB641CFA2CFADD00F09D
:100670000AFC761C0BE0002402E000F0EEFB641C98
:10068000B4F5FA7FF9DD00F010FCA9F10109D9E613
:1006900070B5002600F07EFA00F014FE00F070F94C
:1006A0004FF4A06000F08AFE4FF4E13000F018FD36
:1006B0004FF4612000F075FD0126002556E000246E
:1006C00000F07CF90546032D0FD1294629A002F040
:1006D00039FF00BF05E000F056FB28A002F032FF12
:1006E000641C7D2CF7DD00F0CEFB042D0FD12946D4
:1006F00020A002F027FF002405E000F06EFB20A000
:1007000002F020FF641C7D2CF7DD00F0BCFB072D00
:1007100010D1294617A002F015FF002405E000F0D3
:1007200086FB16A002F00EFF641CB4F5FA7FF6DD1E
:1007300000F0BBFB082D10D129460EA002F002FFED
:10074000002405E000F089FB0DA002F0FBFE641C14
:10075000B4F5FA7FF6DD00F0A8FB022D01D1FFF71A
:1007600063FE062D01D1FFF770FD00BF002EA6D15C
:10077000002070BD25640D0A00000000310000005B
:1007800030000000704700BFFEE700BFFEE700BF7B
:10079000FEE700BFFEE770477047704770470000F4
:1007A0000CB50020019000906C48006840F4803047
:1007B0006A49086000BF6948006800F40030009092
:1007C0000198401C0190009818B90198B0F5A06FED
:1007D000F1D16248006800F4003010B101200090AF
:1007E00001E0002000900098012843D15C48006897
:1007F00040F010005A4908600846006820F00300E5
:1008000008600846006840F00200086053484068ED
:10081000524948600846406848600846406840F4CD
:10082000806048600846406820F47C1048600846B4
:10083000406840F4E81048600846006840F0807066
:10084000086000BF4548006800F000700028F9D03B
:100850004248406820F0030040494860084640682C
:1008600040F00200486000BF3C48406800F00C00C7
:100870000828F9D10CBD10B5FFF792FF10BD10B5D7
:100880003648006840F00100344908600846406876
:1008900034490840314948600846006832490840F8
:1008A0002E4908600846006820F480200860084649
:1008B000406820F4FE0048604FF41F008860FFF796
:1008C000DAFF4FF000602949086010BD10B5002123
:1008D00000200022214B5B6803F00C0121B10429A8
:1008E00006D0082928D107E0214B224C236027E0BD
:1008F0001F4B204C236023E0184B5B6803F47010FF
:10090000164B5B6803F48032022303EB904022B95C
:10091000194B4343174C23600DE0104B5B6803F405
:10092000003323B1144B4343124C236003E0104BBC
:100930004343104C236003E00D4B0E4C236000BF7B
:1009400000BF064B5B68C3F303130C4CE15C094B1F
:100950001B68CB40074C236010BD00000010024014
:10096000002002400000FFF8FFFFF6FE08ED00E067
:1009700000127A000800002000093D000C00002051
:1009800008B50121082001F0A3F87820ADF8000097
:1009900010208DF8030003208DF8020069463248CC
:1009A00000F0DAFD4FF4F060ADF8000048208DF85B
:1009B000030069462C4800F0CFFD08BD7FB52B4BE6
:1009C0000FCB8DE80F00002408E0294A32F81410FC
:1009D000284A52F8240000F06CFE641C042CF4DB5E
:1009E00000243DE0244A32F81410244A52F824002E
:1009F00000F061FE0A2000F0A2FC002525E01C4A60
:100A000032F815101B4A52F8250000F038FED8B90C
:100A100000BF174A32F81510164A52F8250000F0A8
:100A20002EFE0028F5D00A2000F089FC124A32F888
:100A30001410124A52F8240000F03BFE684600EB06
:100A40008400405D04B070BD6D1C042DD7DB0A4AE4
:100A500032F81410094A52F8240000F02AFE641CEF
:100A6000042CBFDB0020EDE7000C0140203E000815
:100A7000183E00082C000020103E00081C0000203A
:100A80007FB505460C460121022001F02EF8ADF895
:100A90000850ADF804400020ADF80A00ADF806009B
:100AA00001A9384801F04CF901221146354801F0FE
:100AB000BEFC1D208DF8000000208DF801000320F1
:100AC0008DF8020001208DF80300684600F07BFCE1
:100AD00001212C4801F090FC7FBD10B5012129486F
:100AE00001F053FF58B10121264801F05FFF26486D
:100AF000006808B9012000E000202349086010BD0B
:100B000030B589B005460C460121022000F0EDFF0A
:100B10000121092000F0DCFF01211C4800F0EDFD5F
:100B20002020ADF8200018208DF8230003208DF838
:100B3000220008A9164800F00FFDADF81850ADF8D6
:100B400014400020ADF81A00ADF8160005A90D48B4
:100B500001F0F6F87020ADF804000120ADF80600B1
:100B60000020ADF80C0001A9064801F068F9082141
:100B7000044801F07AFD0121024801F03DFC09B072
:100B800030BD0000000400409401234200081A0018
:100B9000000C014008B50121102000F099FF4FF42E
:100BA0007F70ADF8000010208DF8030003208DF851
:100BB00002006946C74800F0CFFC4FF47F71C5487A
:100BC00000F079FD08BD10B50421C24800F073FDA6
:100BD0000821C04800F06DFD1021BE4800F069FDFD
:100BE0002021BC4800F065FD10BD10B50421B948B6
:100BF00000F061FD0821B74800F05DFD1021B54807
:100C000000F057FD2021B34800F053FD10BD10B592
:100C10000421B04800F04DFD0821AE4800F04BFD26
:100C20001021AC4800F045FD2021AA4800F041FD0C
:100C300010BD10B50421A74800F03BFD0821A548D0
:100C400000F039FD1021A34800F035FD2021A14816
:100C500000F02FFD10BD10B504219E4800F029FDC5
:100C600008219C4800F025FD10219A4800F023FD42
:100C70002021984800F01DFD10BD10B504219548B5
:100C800000F017FD0821934800F013FD1021914852
:100C900000F011FD20218F4800F00DFD10BD10B5B2
:100CA00004218C4800F005FD08218A4800F001FD70
:100CB0001021884800F0FDFC2021864800F0FBFC54
:100CC00010BD10B50421834800F0F5FC08218148CF
:100CD00000F0EFFC10217F4800F0EBFC20217D4864
:100CE00000F0E9FC10BD10B540217A4800F0E3FCAB
:100CF0008021784800F0DFFC4FF48071754800F0E7
:100D0000D8FC4FF40071734800F0D3FC10BD10B54F
:100D10004021704800F0CDFC80216E4800F0CBFCF3
:100D20004FF480716B4800F0C6FC4FF400716948C5
:100D300000F0BFFC10BD10B54021664800F0B9FCC2
:100D40008021644800F0B5FC4FF48071614800F0E8
:100D5000B2FC4FF400715F4800F0ADFC10BD10B55F
:100D600040215C4800F0A7FC80215A4800F0A1FC1B
:100D70004FF48071574800F09CFC4FF400715548C7
:100D800000F099FC10BD10B5FFF71DFF032000F027
:100D9000D6FAFFF72AFF032000F0D1FAFFF737FF5A
:100DA000032000F0CCFAFFF744FF032000F0C7FA5D
:100DB000FFF751FF032000F0C2FAFFF75EFF0320A8
:100DC00000F0BDFAFFF76BFF032000F0B8FAFFF761
:100DD00078FF032000F0B3FA10BD10B5FFF771FFE4
:100DE000032000F0ACFAFFF75AFF032000F0A7FA47
:100DF000FFF743FF032000F0A2FAFFF72CFF0320C8
:100E000000F09DFAFFF715FF032000F098FAFFF7B6
:100E1000FEFE032000F093FAFFF7E7FE032000F048
:100E20008EFAFFF7D0FE032000F089FA10BD10B54E
:100E3000FFF759FF032000F082FAFFF768FF032055
:100E400000F07DFAFFF777FF032000F078FAFFF754
:100E500086FF032000F073FA10BD10B5FFF77FFF87
:100E6000032000F06CFAFFF766FF032000F067FA3A
:100E7000FFF74DFF032000F062FAFFF734FF032075
:100E800000F05DFA10BD10B50421124800F011FC0D
:100E90000821104800F00DFC10210E4800F009FC5C
:100EA00020210C4800F005FC10BD10B54021094878
:100EB00000F001FC8021074800F0FDFB4FF4807139
:100EC000044800F0F8FB4FF40071024800F0F3FB17
:100ED00010BD00000010014001460A46107A00EBE8
:100EE00040004000103070472DE9F84306460F4699
:100EF0003446207833490979884208D160783149ED
:100F00004979884203D12F480068B84202D90020AD
:100F1000BDE8F883207A102804D0207A402801D038
:100F20000020F5E73046FFF7D7FFB84201D0002098
:100F3000EEE73946304600F062F808B90020E7E7EE
:100F4000E0782049887160688860207A08730025FD
:100F500032E005EB450104F1090000EB4100C178E6
:100F60001848103000EBC500017105EB450104F194
:100F7000090000EB410081881248103000EBC500E9
:100F8000C18005EB450104F1090000EB4100018837
:100F9000ADF8001080788DF80200009800F016F887
:100FA000814601F0A1FF8046074901F05FFF054936
:100FB000103141F835006D1C207AA842C9DC0120AF
:100FC000A6E700003C00002000007A4401B5694615
:100FD000087800024B7840EA03408B7840EA0362CD
:100FE000D01702EB1060001208BD01B56946087801
:100FF0004A7840EA02208A7840EA024008BD30B5CB
:10100000024613460024002003E01D5C2544ECB298
:10101000401C4D1E8542F8D8481E185CA04201D1E4
:10102000012030BD0020FCE72DE9F04103460C46CD
:1010300000200025002600270021002284462CE005
:101040006D1C302906DB392904DCA1F1300808F0D9
:10105000FF0212E0612906DB662904DCA1F15708D2
:1010600008F0FF0209E0412906DB462904DCA1F172
:10107000370808F0FF0200E00FE0BCF1000F03D1D9
:1010800016464FF0010C07E0174647EA061804F829
:101090000080401C4FF0000C00BF13F80580B8F131
:1010A0000001CDD1BDE8F08110B50023002203E09E
:1010B000845C1C44E3B2521C4C1E9442F8D84A1E75
:1010C000835410BD00BF704700BF774A128802F0FA
:1010D0004002002AF9D0C2B2734B1B1D1A80704720
:1010E00010B586B00446012144F2040000F0F0FC83
:1010F0004FF40070ADF8140003208DF8160018208E
:101100008DF8170005A9694800F026FA4FF48060B1
:10111000ADF8140004208DF8170005A9634800F00D
:101120001BFA25208DF8000003208DF801008DF8B2
:10113000020001208DF80300684600F044F9019494
:101140000020ADF80800ADF80A00ADF80C00ADF8CD
:1011500010000C20ADF80E0001A9534801F06DFC01
:10116000012240F22551504801F0FFFC01214E4878
:1011700001F0EFFC06B010BD10B5044600BF8021A1
:10118000494801F0C1FD0028F9D02146464801F048
:101190004DFD00BF4021444801F0B6FD0028F9D0C4
:1011A00010BD10B586B004460121414800F09DFCF9
:1011B0000420ADF8140003208DF8160018208DF8D7
:1011C000170005A9394800F0C7F90820ADF8140048
:1011D00004208DF8170005A9344800F0BDF9262039
:1011E0008DF8000001208DF801008DF802008DF8C7
:1011F0000300684600F0E7F801940020ADF808000D
:10120000ADF80A00ADF80C00ADF810000C20ADF8F8
:101210000E0001A9274801F010FC012240F22551DF
:10122000244801F0A2FC0121224801F092FC06B002
:1012300010BD10B5002440F225511E4801F07AFD82
:1012400080B31C4801F0F6FC572802D101201A494E
:1012500008701948007800B3164801F0EBFCC1B2E1
:10126000164802880088401C144B1880144881548A
:1012700018460088B0F5C87F0FD14FF4C8711048E8
:10128000FEF7B9FF0446012C02D10D48FEF75CFFC2
:1012900000200A4908800849087040F22551054895
:1012A00001F072FD10BD000000380140000801404F
:1012B00004000200004400405E0200205C020020A6
:1012C0001021002010B56FF0040000F0C6F82E4881
:1012D00000682E49B0FBF1F02D49087008460078EF
:1012E00000EB4001C1EBC0104FF6FF7101EAC000F6
:1012F0002849088010BD0146254A12784A434FF01C
:10130000E0235A6100229A611A46126942F00102F2
:101310001A6100BF4FF0E022106900F001021AB11B
:1013200000F48032002AF5D04FF0E022126922F05A
:1013300001024FF0E0231A6100229A6170470146D2
:10134000144A12884A434FF0E0235A6100229A61FE
:101350001A46126942F001021A6100BF4FF0E02202
:10136000106900F001021AB100F48032002AF5D0B1
:101370004FF0E022126922F001024FF0E0231A61DF
:1013800000229A61704700000800002000127A00D5
:10139000600200206202002006488047064800479D
:1013A000FEE7FEE7FEE7FEE7FEE7FEE7FEE7FEE715
:1013B000FEE7FEE77F0800083101000831490143DC
:1013C000314A1160704770B5002100230F22C478A4
:1013D00004B32D4C246804F4E064C4F5E064210AED
:1013E000C1F10403CA40447804FA03F1847814403C
:1013F00021430901254C0678A155047804F01F0506
:101400000124AC4005786D11AD0005F1E025C5F86B
:10141000004109E0047804F01F050124AC401C4D94
:101420000678761145F8264070BD1A4A0A400243F4
:10143000154B1B1F1A60704739B1134A121D1268F1
:101440000243114B1B1D1A6006E00F4A121D126861
:1014500082430D4B1B1D1A607047042808D14FF0C2
:10146000E021096941F004014FF0E022116107E039
:101470004FF0E021096921F004014FF0E0221161F1
:10148000704700000000FA050CED00E000E400E009
:1014900080E100E080FFFF1F10B50446CC48844285
:1014A00008D10121042000F02DFB0021042000F0D0
:1014B00029FB46E0C748844208D10121082000F0FA
:1014C00021FB0021082000F01DFB3AE0C2488442C5
:1014D00008D10121102000F015FB0021102000F0A0
:1014E00011FB2EE0BD48844208D10121202000F0EC
:1014F00009FB0021202000F005FB22E0B8488442CF
:1015000008D10121402000F0FDFA0021402000F028
:10151000F9FA16E0B348844208D10121802000F096
:10152000F1FA0021802000F0EDFA0AE0AE48844292
:1015300007D10121801500F0E5FA0021A01500F087
:10154000E1FA10BD10B50121084600F0DBFA0021D8
:10155000012000F0D7FA10BD2DE9F0410246002528
:101560000026002000230024002791F803C00CF07F
:101570000F0591F803C00CF0100CBCF1000F03D064
:1015800091F802C04CEA050591F800C0BCF1000FCB
:1015900031D0146800202BE04FF0010C0CFA00F35E
:1015A000B1F800C00CEA03069E4220D183004FF040
:1015B0000F0C0CFA03F7BC4305FA03FC4CEA0404D5
:1015C00091F803C0BCF1280F06D14FF0010C0CFAC2
:1015D00000FCC2F814C00AE091F803C0BCF1480F47
:1015E00005D14FF0010C0CFA00FCC2F810C0401CF1
:1015F0000828D1D31460B1F800C0BCF1FF0F34DD6E
:10160000546800202EE000F1080C4FF0010808FAA1
:101610000CF3B1F800C00CEA03069E4221D183000E
:101620004FF00F0C0CFA03F7BC4305FA03FC4CEA2D
:10163000040491F803C0BCF1280F05D100F1080C97
:1016400008FA0CF8C2F8148091F803C0BCF1480FF6
:1016500007D100F1080C4FF0010808FA0CF8C2F8A5
:101660001080401C0828CED35460BDE8F0814FF6AE
:10167000FF710180022181700421C1707047024610
:10168000002093680B400BB1012000E00020704760
:101690000146886880B2704702460020D3680B403C
:1016A0000BB1012000E0002070470146C86880B2FD
:1016B000704701617047416170470AB1016100E004
:1016C00041617047C16070474FF480320A438261C4
:1016D0008161826182698269704702460020434BC2
:1016E00018684FF68073184040EA021008433F4BD9
:1016F000186070473E49C8617047F0B50A4600233C
:1017000000240021002500F00046B6F1004F02D170
:10171000364EF16901E0354E7168C0F3034583B27E
:1017200000F44016B6F5401F08D121F070612F4E2D
:10173000766826F070662D4F7E6012E000F4801609
:10174000B6F5801F06D1032606FA05F4A14341F041
:10175000706106E0460D360103FA06F6B14341F02A
:10176000706122B1460D360103FA06F6314300F0EE
:101770000046B6F1004F02D11C4EF16101E01B4E54
:101780007160F0BD30B500228B071C0F0F2303FAE8
:1017900004F2164B08338C1053F824309343134C47
:1017A00008348D1044F8253023468C1053F824302B
:1017B0008C07240F00FA04F423430C4C08348D10DA
:1017C00044F8253030BD0A49DC310860704700001C
:1017D00000080140000C01400010014000140140CD
:1017E00000180140001C01400020014000000140A1
:1017F00000002042DF48006840F00100DD49086039
:1018000008464068DC490840DA49486008460068F4
:10181000DA490840D74908600846006820F480206B
:1018200008600846406820F4FE0048604FF41F003E
:1018300088607047CF49096821F48031CD4A116032
:101840001146096821F480211160B0F5803F03D072
:10185000B0F5802F0ED106E0C649096841F4803109
:10186000C44A116007E0C349096841F4A021C14A94
:10187000116000E000BF00BF704710B501460022B4
:10188000002300204A11012A02D1BA4C236806E045
:10189000022A02D1B74C236A01E0B64C636A01F018
:1018A0001F02012494401C400CB1012000E00020E4
:1018B00010BD38B5002000900024002500BF312065
:1018C000FFF7DBFF05460098401C00900098B0F53C
:1018D000A06F01D0002DF2D03120FFF7CEFF08B16C
:1018E000012400E00024204638BD01460020A14A22
:1018F000106820F0F80040EAC10010607047A0496D
:1019000008607047024600209A4B586820F47C100B
:1019100042EA01031843974B58607047984908669C
:10192000704701460020934A506820F003000843A6
:10193000506070478F48406800F00C0070470146C7
:1019400000208C4A506820F0F00008435060704737
:1019500001460020874A506820F4E0600843506048
:10196000704701460020834A506820F4605040EAE6
:10197000C1005060704729B17E4A527A02437D4BC4
:101980005A7204E07B4A527A82437A4B5A72704709
:101990007B49D8310860704701460020754A50687D
:1019A00020F440400843506070470021714A2032C3
:1019B0001170704A82F82010012802D004280AD140
:1019C00004E001216B4A2032117005E00521694ACB
:1019D0002032117000E000BF00BF70476949086005
:1019E00070476449096A0143624A11627047654958
:1019F00044390860704730B50021002200240023DC
:101A00005C4D6D6805F00C0121B1042905D0082951
:101A100023D105E05C4D056022E05B4D05601FE0D1
:101A2000544D6D6805F47012524D6D6805F48034A4
:101A3000022505EB92421CB9544D554305600BE05D
:101A40004C4D6D6805F400351DB1504D5543056092
:101A500002E04D4D5543056002E04B4D056000BF6F
:101A600000BF444D6D6805F0F0010909484D6B5CFD
:101A70000568DD4045603F4D6D6805F4E061090A89
:101A8000434D6B5C4568DD4085603A4D6D6805F4FB
:101A90006051C90A3E4D6B5C4568DD40C560354DFF
:101AA0006D6805F44041890B3A4D6B5CC568B5FB28
:101AB000F3F5056130BD29B12E4A526902432D4B21
:101AC0005A6104E02B4A526982432A4B5A6170479B
:101AD00029B1284A92690243264B9A6104E0254ABB
:101AE00092698243234B9A61704729B1214AD26996
:101AF0000243204BDA6104E01E4AD26982431D4B47
:101B0000DA61704729B11B4AD2680243194BDA6087
:101B100004E0184AD2688243164BDA60704729B154
:101B2000144A12690243134B1A6104E0114A126904
:101B30008243104B1A617047124940390860704760
:101B40000F49C86470470B49C87170470948406A1B
:101B500040F0807007494862704701460020054AFE
:101B600092680A400AB1012000E000207047014954
:101B700088727047001002400000FFF8FFFFF6FE79
:101B8000000042428004424200127A0000093D00F7
:101B9000640200207402002010B50446FE4884420E
:101BA00008D10121C014FFF7ADFF0021E014FFF7B9
:101BB000A9FFC4E0B4F1804F08D101210846FFF726
:101BC000AEFF00210120FFF7AAFFB8E0F3488442EE
:101BD00008D101210220FFF7A2FF00210220FFF718
:101BE0009EFFACE0EE48844208D101210420FFF7BB
:101BF00096FF00210420FFF792FFA0E0E94884420D
:101C000008D101210820FFF78AFF00210820FFF7F3
:101C100086FF94E0E448844208D101211020FFF7B8
:101C20007EFF00211020FFF77AFF88E0DF48844222
:101C300008D101212020FFF772FF00212020FFF7AB
:101C40006EFF7CE0DA48844208D101214014FFF79E
:101C500059FF00216014FFF755FF70E0D54884421A
:101C600009D10121C804FFF74DFF00214FF40020E6
:101C7000FFF748FF63E0D048844209D101210805FD
:101C8000FFF740FF00214FF48010FFF73BFF56E0C5
:101C9000CA48844209D101214805FFF733FF0021DA
:101CA0004FF40010FFF72EFF49E0C548844208D1E9
:101CB00001214020FFF733FF00214020FFF72FFFD5
:101CC0003DE0C048844208D101218020FFF727FF72
:101CD00000218020FFF723FF31E0BB48844208D178
:101CE00001218015FFF71BFF0021A015FFF717FF4B
:101CF00025E0B648844209D101210804FFF702FF1C
:101D000000214FF48030FFF7FDFE18E0B048844218
:101D100009D101214804FFF7F5FE00214FF40030FE
:101D2000FFF7F0FE0BE0AB48844208D101218804A4
:101D3000FFF7E8FE00214FF48020FFF7E3FE10BD1F
:101D400000220288944B98420ED0994B98420BD0B7
:101D5000B0F1804F08D0914B984205D0904B9842FB
:101D600002D0904B984204D14FF68F731A404B88A3
:101D70001A438D4B984207D08C4B984204D04FF6B3
:101D8000FF431A40CB881A4302808B8883850B88D7
:101D90000385814B98420BD0854B984208D08B4BE2
:101DA000984205D08A4B984202D08A4B984201D182
:101DB0000B7A038601238382704770B500240022CA
:101DC0000023058C4FF6FE7635400584028C83880F
:101DD000048B4FF68F752C40B51E2C400D882C437C
:101DE000751E2A400D892A434D882A436A4DA84210
:101DF0000BD06F4DA84208D0744DA84205D0744D49
:101E0000A84202D0734DA84213D14FF6F7752A406D
:101E10004D892A434FF6FB752A408D882A434FF699
:101E2000FF652B404FF6FF552B408D892B43CD8905
:101E30002B4383800483CD888586028470BD70B572
:101E4000002400220023058C4FF6EF7635400584F0
:101E5000028C8388048B48F6FF752C404FF6FF45B3
:101E60002C400D884FF6FF7606EA05252C434FF6E9
:101E7000DF752A400D8906EA05152A434D8806EAD2
:101E800005152A43444DA84202D0494DA8421DD110
:101E90004FF67F752A404D894FF6FF7606EA051505
:101EA0002A434FF6BF752A408D8806EA05152A4356
:101EB0004FF6FF352B404FF2FF752B408D8906EA18
:101EC00085052B43CD8906EA85052B438380048352
:101ED000CD880587028470BD70B5002400220023E0
:101EE000058C4FF6FF6635400584028C8388848B11
:101EF0004FF68F752C404FF6FC752C400D882C4307
:101F00004FF6FF552A400D894FF6FF7606EA052564
:101F10002A434D8806EA05252A431F4DA84202D0D0
:101F2000234DA8421DD14FF2FF752A404D894FF62F
:101F3000FF7606EA05252A434FF6FF352A408D88AD
:101F400006EA05252A434EF6FF752B404DF6FF7530
:101F50002B408D8906EA05152B43CD8906EA051528
:101F60002B4383808483CD888587028470BD70B5C0
:101F7000002200230024058C4EF6FF7635400584B0
:101F8000038C8488828B48F6FF752A404FF6FF4504
:101F90002A400D8820E00000002C01400004004091
:101FA00000080040000C00400010004000140040F9
:101FB00000340140004C01400050014000540140F9
:101FC00000180040001C004000200040004001407C
:101FD00000440140004801404FF6FF7606EA05251F
:101FE0002A434DF6FF752B400D8906EA05352B4334
:101FF0004D8806EA05352B43FA4DA84202D0FA4D2A
:10200000A84208D14BF6FF752C408D894FF6FF761C
:1020100006EA85152C4384808283CD88A0F8405041
:10202000038470BD828B4FF2FF331A408283828B10
:102030004FF6FF7303EA01231A4382837047F0B51A
:102040000C461546002200210026078C4EF6FF7C28
:1020500007EA0C070784828B018C4FF6FF7707EAAB
:10206000043640F6FF473A404FF6FF7707EA052768
:102070003A434FF6FF7707EA03373A43D94FB8425E
:102080000ED0D94FB8420BD0B0F1804F08D0D74F07
:10209000B84205D0D64FB84202D0D64FB84206D18A
:1020A0004DF6FF77394046F48057394305E047F64F
:1020B000FF57394044F48057394382830184F0BD8F
:1020C000828B4FF6F3731A408283828B0A4382839A
:1020D0007047F0B50C461546002200210026078CFB
:1020E0004FF6FF6C07EA0C070784828B018C4FF6D2
:1020F000FF7707EA04264FF60C773A404FF6FF7752
:1021000007EA03172F433A43B64FB8420ED0B64FF3
:10211000B8420BD0B0F1804F08D0B44FB84205D0D0
:10212000B34FB84202D0B34FB84206D14FF6FF5773
:10213000394046F48077394305E04FF2FF57394084
:1021400044F48077394382830184F0BD028B4FF2DF
:10215000FF331A400283028B4FF6FF7303EA012319
:102160001A4302837047F0B50C4615460022002141
:102170000026078C4FF6EF7C07EA0C070784028BDA
:10218000018C4FF6FF7707EA041640F6FF473A4006
:102190004FF6FF7707EA03373A434FF6FF7707EA30
:1021A00005273A438F4FB8420ED08F4FB8420BD01D
:1021B000B0F1804F08D08D4FB84205D08C4FB84257
:1021C00002D08C4FB84206D14FF6DF77394046F047
:1021D0001007394305E04FF65F77394044F01007A8
:1021E000394302830184F0BD028B4FF6F3731A402A
:1021F0000283028B0A4302837047F0B50C461546F2
:1022000000220021068C4FF6FE773E400684028BAA
:10221000018C4FF60C7632407E1C06EA03162E43E4
:102220003243704EB0420ED06F4EB0420BD0B0F180
:10223000804F08D06D4EB04205D06D4EB04202D0F6
:102240006C4EB04206D14FF6FD76314044F00106A7
:10225000314305E04FF6F576314044F00106314355
:1022600002830184F0BD70B505460C465D48854289
:102270000ED05D4885420BD0B5F1804F08D05B4849
:10228000854205D05A48854202D05A48854200D13D
:1022900000E000BF208850B92389A28861882846C1
:1022A000FFF7ABFFE1882846FFF79EFF25E0208877
:1022B00004280AD12389A28861882846FFF753FFA2
:1022C000E1882846FFF742FF17E0208808280AD156
:1022D0002389A28861882846FFF7FBFEE18828460B
:1022E000FFF7EEFE09E02389A28861882846FFF700
:1022F000A6FEE1882846FFF795FE70BD2DE9F04166
:1023000005460C4600260127608808B9022600E031
:102310000026A088012801D1022700E0012720889B
:10232000A0B92389A28861882846FFF766FFE18863
:102330002846FFF759FF23893A4631462846FFF7DA
:1023400012FFE1882846FFF701FF13E02389A288E6
:1023500061882846FFF707FFE1882846FFF7F6FE69
:1023600023893A4631462846FFF747FFE188284649
:10237000FFF73AFFBDE8F0810A884B881A438B8843
:102380001A43CB881A430B891A434B891A438B890A
:102390001A43A0F8442070474FF6FF718180002156
:1023A0000180C1804180017270470021018041801D
:1023B0008180C180018141818181C181704700217B
:1023C00001804180012181800021C180018170470D
:1023D0000021018041808180C18001814181818112
:1023E00070470000002C0140003401400004004010
:1023F00000080040000C004021B1028842F00102B8
:10240000028004E002884FF6FE731A400280704793
:1024100031B1B0F8442042F40042A0F8442005E075
:10242000B0F84420C2F30E02A0F8442070471AB15D
:1024300083890B43838102E083898B4383817047C7
:102440008182704741EA0203A0F8483070471AB110
:1024500083890B43838102E083898B4383817047A7
:1024600001894FF6F8721140018170470A46002138
:1024700001894FF68F73194011430181704730B5C0
:1024800004460D4629462046FFF7F0FF208940F01C
:102490000700208130BD2DE9F04104460D46164667
:1024A0001F46602D06D13B46012231462046FFF7EC
:1024B0005AFE05E03B46012231462046FFF79DFECD
:1024C00029462046FFF7D2FF208940F007002081EF
:1024D000BDE8F08130B50C4600210189C9B24FF644
:1024E000FF7505EA0325154325432943018130BDC6
:1024F0002DE9F04105460E4617469846002443460E
:102500003A4631462846FFF7E5FF2C894FF6F8702A
:10251000044044F007044FF68F70044044F0700408
:102520002C81BDE8F081F0B504460D4616461F46E5
:102530003B46324629462046FFF7CCFF208940F42F
:1025400080402081F0BD0185828270470A460021CB
:1025500001884FF68F731940114301807047F0B521
:102560000C4615461E460021002200230189028BDD
:10257000038C4FF6F877394021434FF6FC473A4039
:1025800040F201173A434FF6DD773B404FF6FF77B5
:1025900007EA06172F433B43018102830384F0BD02
:1025A0000A460021018B4FF68F73194011430183B6
:1025B00070470A460021018B48F6FF7319404FF619
:1025C000FF7303EA02231943018370470A4600217F
:1025D000818B4FF68F7319401143818370470A46F0
:1025E0000021818B48F6FF7319404FF6FF7303EA11
:1025F000022319438183704721B1028842F080028F
:10260000028004E002884FF67F731A400280704710
:1026100021B1828842F00402828004E082884FF671
:10262000FB731A408280704721B1828842F0080211
:10263000828004E082884FF6F7731A4082807047E8
:1026400021B1828842F00102828004E082884FF644
:10265000FE731A40828070470A460021018B4FF6B4
:10266000F77319401143018370470A460021018B1B
:102670004FF2FF7319404FF6FF7303EA0223194329
:10268000018370470A460021818B4FF6F77319408A
:102690001143818370470A460021818B4FF2FF73FB
:1026A00019404FF6FF7303EA0223194381837047F1
:1026B0000A460021018B4FF6FB7319401143018339
:1026C00070470A460021018B4FF6FF3319404FF641
:1026D000FF7303EA02231943018370470A4600216E
:1026E000818B4FF6FB7319401143818370470A4673
:1026F0000021818B4FF6FF3319404FF6FF7303EA39
:1027000002231943818370470A460021018B4FF64B
:102710007F7319401143018370470A460021018BE2
:10272000C1F30E014FF6FF7303EA0223194301833D
:1027300070470A460021818B4FF67F731940114381
:10274000818370470A460021818BC1F30E014FF649
:10275000FF7303EA02231943818370470A4600216D
:10276000018C4FF6FD7319401143018470470A46EE
:102770000021018C4FF6F773194011430184704713
:102780000A460021018C4FF6DF7319404FF6FF73A4
:1027900003EA02131943018470470A460021018CA1
:1027A0004FF67F7319404FF6FF7303EA0213194384
:1027B000018470470A460021018C4FF6FF531940EF
:1027C0004FF6FF7303EA02231943018470470A4658
:1027D0000021018C4FF2FF7319404FF6FF7303EA9B
:1027E00002231943018470470A460021018C4DF6EB
:1027F000FF7319404FF6FF7303EA02331943018454
:10280000704730B5002301248C40A3B2048C9C4354
:102810000484048C02FA01F5ADB22C43048430BD6B
:1028200030B5002304248C40A3B2048C9C43048460
:10283000048C02FA01F5ADB22C43048430BD70B5AE
:102840000346002000241846183001258D40ACB204
:102850001D8CA5431D8409B1082909D100EB610035
:10286000056825F0700505600568154305600EE0F4
:102870000D1FC5F34E052844056825F4E0450560A5
:1028800005684FF6FF7606EA02263543056070BDFF
:1028900021B1028842F00202028004E002884FF671
:1028A000FD731A400280704721B1028842F0040291
:1028B000028004E002884FF6FB731A4002807047E2
:1028C00021B1828842F08002828004E082884FF643
:1028D0007F731A408280704702884FF6F7731A4060
:1028E000028002880A430280704782884FF68F7305
:1028F0001A40828082880A438280704702894FF69C
:10290000F8731A40028102890A43028170470289E2
:102910004FF67F731A40028102890A430281704791
:102920008184704781857047818670470187704731
:1029300081877047A0F84010704702884FF6FF4328
:102940001A40028002880A43028070470146888E3E
:1029500070470146088F70470146888F70470146CF
:10296000B1F8400070470146888C70470146088DD9
:10297000704702460020138A0B400BB1012000E093
:1029800000207047CA430282704730B502460020DB
:1029900000230024158A05EA0103958905EA01044C
:1029A00013B10CB1012000E0002030BDCA43028207
:1029B0007047000010B50446FB48844209D101214C
:1029C0008803FFF79FF800214FF48040FFF79AF843
:1029D00032E0F648844209D101214804FFF79FF80C
:1029E00000214FF40030FFF79AF825E0F0488442C8
:1029F00009D101218804FFF792F800214FF48020CB
:102A0000FFF78DF818E0EB48844209D10121C80492
:102A1000FFF785F800214FF40020FFF780F80BE066
:102A2000E548844208D101210805FFF778F8002124
:102A30004FF48010FFF773F810BD2DE9F04786B012
:102A400005460E460024A24600BFA1460027B089D5
:102A500000B100BF2F462C8A4CF6FF700440F0886E
:102A600004432C82AC894EF6F3100440B0883189BF
:102A70000843718908430443AC81AC8A4FF6FF4098
:102A80000440B0890443AC8201A8FEF7B4FFC648F5
:102A9000874202D1DDF810A001E0DDF80CA0A88982
:102AA00000F4004040B10AEBCA0000EB0A103168A4
:102AB0004900B0FBF1F807E00AEBCA0000EB0A108E
:102AC00031688900B0FBF1F86420B8FBF0F0040134
:102AD0002009642101FB1089A88900F4004040B15D
:102AE000322000EBC900B0FBF1F000F00700044316
:102AF00008E0322000EB09106421B0FBF1F000F097
:102B00000F0004432C8106B0BDE8F0874FF4165146
:102B1000016000218180C18001810C21418100215F
:102B20008181704710B502460020108A4FF2FF03E2
:102B300018400B884C8823438C882343CC8823433C
:102B40001843108210BD0021018041808180C18026
:102B5000704721B1828942F40052828104E0828967
:102B60004DF6FF731A4082817047F0B5034600248A
:102B700000260025002040F66A17B94200D100BFA8
:102B80001846C1F3421401F01F06012707FA06F5A3
:102B9000012C01D10C3004E0022C01D1103000E0F6
:102BA00014301AB107682F43076002E00768AF438B
:102BB0000760F0BD1AB1838A0B43838202E0838AE7
:102BC0008B4383827047028A4FF6F0731A40028269
:102BD000028A0A430282704782894FF2FF731A40C9
:102BE000828182890A438281704721B1828942F0C1
:102BF0000202828104E082894FF6FD731A408281CD
:102C00007047028A4FF6DF731A400282028A0A4333
:102C10000282704721B1028A42F48042028204E0BB
:102C2000028A4BF6FF731A4002827047C1F3080212
:102C30008280704701468888C0F308007047818908
:102C400041F0010181817047028BD2B20283028B75
:102C500042EA012202837047028B02F47F42028320
:102C6000028B0A430283704721B1828A42F020021C
:102C7000828204E0828A4FF6DF731A4082827047B4
:102C800021B1828A42F01002828204E0828A4FF6E9
:102C9000EF731A408282704721B1828A42F00802A3
:102CA000828204E0828A4FF6F7731A40828270476C
:102CB00021B1828942F40042828103E08289C2F319
:102CC0000E028281704721B1828A42F400628282C0
:102CD00004E0828A4FF2FF731A4082827047828A30
:102CE0004FF6FB731A408282828A0A4382827047BF
:102CF00021B1828A42F00202828204E0828A4FF687
:102D0000FD731A408282704702460020B1F5007FB1
:102D100000D100BF13880B400BB1012000E0002060
:102D2000704701F40072B2F5007F00D100BFCA43C2
:102D30000280704770B50246002400230025002061
:102D400040F66A16B14200D100BFC1F3421501F04E
:102D50001F03012606FA03F3012D02D196893340A1
:102D600006E0022D02D1168A334001E0968A3340F4
:102D70000C12012606FA04F41688344013B10CB183
:102D8000012000E0002070BD10B50022002340F6B5
:102D90006A14A14200D100BF0A1201249440A3B2D8
:102DA000DC43048010BD00000038014000440040B6
:102DB00000480040004C004000500040F0B480EA61
:102DC0000102D40F4200B2EB410F02D20246084684
:102DD00011464A0042D0C30DDDB2C1F3C752AD1A4D
:102DE000202D35DAC1F3160141F4000204B152423C
:102DF000C5F1200602FA06F12A411044B3EBD05F78
:102E000023D0C4B1012DA0EBC35009DCF0BC4FF0BE
:102E1000004202EAC352DBB200F5000000F0E0B865
:102E2000400000F1807000EBC350A0F1807040EAD8
:102E3000D170490009E0490841EAC071A0EBC350D4
:102E400000F50000400800EBC350F0BC00F0BFB834
:102E50006142012202EB4101001BF6E7F0BC704722
:102E600081F00041AAE780F00040A7E730B480EA93
:102E7000010202F0004530F0004221F0004013D082
:102E800090B1C30DD40DC2F31601C0F31600E41ABD
:102E900041F4000140F400027D34914201D3641CEE
:102EA00000E04900002C02DA30BC002070474FF4EB
:102EB00000000023914201D3891A034340084FEADE
:102EC0004101F7D151B1914202D14FF0004105E0EB
:102ED00002D24FF0010101E06FF0010103EBC45099
:102EE000284430BC00F073B8C10F80EAE070084499
:102EF000CA079623002100F073B8962300221146DA
:102F000000F06EB800F0004230F000400AD0C10D71
:102F100001F56071C0F3160042EA0151C208400792
:102F2000114370470020014670470000002801DB74
:102F3000C0F10040002901DBC1F10041814270472E
:102F400030B50B46014600202022012409E021FA79
:102F500002F59D4205D303FA02F5491B04FA02F576
:102F60002844151EA2F10102F1DC30BD2DE9F05F0D
:102F70000546002092469B468846064681464024E8
:102F80001BE0284641464746224600F030FA5346A9
:102F90005A46C01A914110D311461846224600F0F5
:102FA00017FA2D1A67EB01084F462246012000212F
:102FB00000F00EFA17EB00094E41201EA4F10104A7
:102FC000DFDC484631462A464346BDE8F09F0029EB
:102FD000A8BF7047401C490008BF20F0010070479F
:102FE00010B4B0FA80FC00FA0CF050EA010404BFFF
:102FF00010BC704749B1CCF1200421FA04F411FA55
:103000000CF118BF012121430843A3EB0C01CB1D98
:103010004FEA00614FEA102042BF002010BC704709
:1030200000EBC35010440029A4BF10BC7047401CE3
:10303000490008BF20F0010010BC70472DE9FE4F89
:10304000804681EA0300C00F0C46009021F0004149
:1030500023F00045B8EB0200A94105D240462146C5
:1030600090461C460B46024623F00040104347D0D2
:10307000270DC7F30A00C3F30A510290401A0190CA
:1030800040286BDAC3F3130040F4801B009892468B
:1030900020B10023D2EB030A63EB0B0B01985946D6
:1030A000C0F14002504600F093F906460D465046E6
:1030B0005946019A00F0ABF910EB08006141002479
:1030C00087EA115284EAE7731A4340D0009A62B348
:1030D000019A012A4FEA075215DC001B61EB02013D
:1030E0004FF0004202EA0752CDE90042001C41F5D0
:1030F000801132462B4600F0ABF903B0BDE8F08FEB
:1031000040462146F9E7001B61EB0201001C41F536
:10311000801300185B412018A2F5001747EB03014C
:1031200040EAD570B6196D4111E06D084FEA3606D8
:1031300045EAC0754FEA0752001B61EB0201001C13
:1031400041F5801149084FEA3000001951413246DB
:103150002B4603B0BDE8F04F00F06BB90098012298
:1031600040000023D0EB020263EBE073009821469D
:103170004FEAE074B8EB000061EB0401E9E783F08B
:1031800000435BE781F0004158E72DE9FE4F81EAFB
:10319000030404F0004421F0004100944FF0000BC0
:1031A00023F0004350EA01045ED052EA03045BD0EE
:1031B000C3F30A54C1F30A552C44A4F2F334019426
:1031C000A0FB0254C1F3130141F48011C3F31303B4
:1031D00043F4801301FB024400FB034E840A970A68
:1031E00044EA815447EA8357A4FB076802958D0A95
:1031F00005FB07854FEA932C04FB0C542705029D21
:103200004FEA065847EA1637B5EB08056EEB070C90
:10321000870E920E47EA811742EA8312A7FB02014A
:10322000B6EB0B0164EB00042B0D43EA0C335E1884
:1032300044EB1C50DA465146E7FB0201C5F3130488
:103240004FEA0B3343EA14534FEA0432019C43EA3A
:103250000603A4F10C040294009CCDE900B400F034
:10326000F7F803B0BDE8F08F00200146F9E72DE93B
:10327000F04D81EA030404F0004B21F000451446B0
:103280004FF0000A23F0004150EA050220D054EA32
:1032900001021DD0C5F30A570246C5F31303C1F35B
:1032A0001300C1F30A5640F4801543F48013A7EBD2
:1032B0000608101BD64608F2FD3873EB050002D352
:1032C00008F1010801E092185B41B8F1000F03DA40
:1032D00000200146BDE8F08D00204FF48011064625
:1032E00084460EE0171B73EB050705D3121B63EB37
:1032F000050306434CEA010C49084FEA30009218D6
:103300005B4150EA0107EDD152EA030012D082EA94
:10331000040083EA0501084305D0101BAB4106D227
:103320000122002306E000224FF0004302E06FF08C
:10333000010253101AEB06004CEB085110EB0A0087
:1033400041EB0B01BDE8F04D00F073B8C1F30A5238
:10335000C1F3130140F2FF3341F480119A4202DAC3
:1033600000200146704740F233439A42A2F23342B2
:1033700002DC524200F03BB800F02AB830B5041E1F
:1033800071F1000404DB4FF00044404264EB0101A2
:10339000141E73F1000405DB1C464FF0004352423B
:1033A00063EB0403994208BF904230BD064C074DC1
:1033B00006E0E06840F0010394E807009847103405
:1033C000AC42F6D3FCF7B8FE303E0008503E000891
:1033D000202A04DB203A00FA02F1002070479140D5
:1033E000C2F1200320FA03F3194390407047202ACA
:1033F00004DB203A21FA02F00021704721FA02F39F
:10340000D040C2F120029140084319467047202A5B
:1034100006DBCB17203A41FA02F043EAE07306E0FC
:1034200041FA02F3D040C2F120029140084319460C
:10343000704710B5141E73F1000408DA401C41F106
:10344000000192185B411A4301D120F0010010BD28
:103450002DE9F04D92469B4611B1B1FA81F202E09E
:10346000B0FA80F220329046FFF7B2FF04460F46D2
:1034700040EA0A0041EA0B0153465A46084313D07A
:10348000114653EA010019D0C8F140025046FFF737
:10349000AEFF05460E46504659464246FFF798FF96
:1034A000084305D0012004E020463946BDE8F08DF0
:1034B0000020054346EAE0762C4337430A9863052B
:1034C000E40AA0EB08000022FD0A44EA47540A304F
:1034D00002D500200146E9E7010510196941DDE93F
:1034E000084500196941BDE8F04DA2E770B58C1898
:1034F00010F8015B15F0070301D110F8013B2A1108
:1035000006D110F8012B03E010F8016B01F8016BF4
:103510005B1EF9D12B0705D40023521E0DD401F8F0
:10352000013BFAE710F8013BCB1A921C03E013F8B9
:10353000015B01F8015B521EF9D5A142D8D30020EE
:1035400070BD00000FB4054B10B503A9044A0298E2
:1035500000F0DAF810BC5DF814FB0000C910000898
:103560005402002002E008C8121F08C1002AFAD144
:1035700070477047002001E001C1121F002AFBD1F3
:10358000704700002DE9FF5F82B00021DDE90430C3
:10359000020DDDF840B0034318D044F61050A2F2FB
:1035A000FF3242431514119801281FD0A5EB0B00E0
:1035B000401C5FEA000A4FF000064E4FDFF83891DA
:1035C000B046504615D5CAF1000413E01198012405
:1035D0004AA3012801D16FEA0B010298119AC0E9B0
:1035E0000031C0E9024206B0BDE8F09FCBF1000017
:1035F000DFE704460021404A491842EB0450CDE978
:10360000001012E0E00707D032463B4640464946EC
:10361000FFF7BBFD8046894632463B4610461946B9
:10362000FFF7B3FD06460F466410002CEAD1DDE932
:103630000401DDE90023BAF1000F06DAFFF7A5FD6A
:1036400042464B46FFF7A1FD05E0FFF710FE42465C
:103650004B46FFF70CFE04460E460022284BFFF7B0
:103660008DFE03D84FF0FF30014607E00022254BC6
:1036700020463146FFF7E2FCFFF768FE102409E020
:10368000002C0ADB0A220023FFF770FC039B303278
:103690001A55641E50EA0102F2D1641C039AC4F167
:1036A00011031444119A012A03D0012208430DD1B9
:1036B0000AE0084304D000204FF0110B119072E78C
:1036C000A3EB0B056D1E0DE05B4504DD4FF0000222
:1036D00005F1010504E003DA4FF00002A5F1010550
:1036E000002AECD002981199C0E90231C0E90045E6
:1036F00079E70000000014400000F03F30000000B7
:103700000000F0430000E03F2DE9FF4F95B09A46DE
:10371000884606460025EEE1252877D10024274675
:10372000F94A0121039400E0044316F8013F203BCD
:1037300001FA03F01042F7D130782A2811D06FF047
:103740002F033078A0F13002092A16D8039A44F0EA
:10375000020402EB820203EB42021044761C039047
:10376000EFE758F8042B0392002A03DA504244F49E
:103770000054039044F00204761C30782E2816D1B1
:1037800016F8010F44F004042A280DD06FF02F0220
:103790003078A0F13003092B09D807EB870302EB3F
:1037A0004303C718761CF3E758F8047B761C30787F
:1037B0006C280FD006DC4C2817D068280DD06A285A
:1037C00014D104E0742810D07A280FD10DE044F40D
:1037D00000140AE044F4801401E044F440147278C8
:1037E000824202D104F58014761C761C307866285B
:1037F0000BD013DC582877D009DC002875D0452879
:10380000F6D04628F4D047281AD193E118E063286F
:1038100035D0642879D0652812D18BE1702873D017
:1038200008DC6728F1D069286FD06E280DD06F288A
:1038300006D1ACE073282CD0752874D0782853D0EA
:103840005246179990476D1C54E1C4F30250022868
:1038500009D003280DD0D8F8001004280DD00D6031
:1038600008F1040846E1D8F80010EA17C1E900524F
:10387000F6E7D8F800100D80F2E70D70F0E718F8C1
:10388000041B8DF8001000208DF80100EB4601208C
:1038900003E058F804BB4FF0FF3061074FF0000120
:1038A00002D40DE009F101018946B9420FDA8145E0
:1038B000F8DB1BF809100029F4D108E009F1010137
:1038C00089468142FADB1BF809100029F6D10398DA
:1038D0005346A0EB090721463846179A00F080FAB4
:1038E000284400EB090507E044E008E10DE01BF87F
:1038F000010B524617999047B9F10109F7D2534687
:1039000021463846179AF2E039E00A21C4F3025200
:103910004FF0000B0091022A06D058F8040BC11793
:10392000032A09D00AE023E008F1070020F007028B
:10393000F2E80201904605E000B2C117042A01D165
:1039400040B2C117002906DA0A460021404261EB65
:1039500002012D2202E0220504D52B228DF804203D
:10396000012203E0E20701D02022F7E7914657E069
:103970000A2100E010214FF0000B00910BE0102114
:103980004FF0000B44F004040827009103E00820E6
:103990004FF0000B0090C4F30252022A05D058F8F1
:1039A000040B0021032A08D008E008F1070020F0EA
:1039B0000702F2E80201904603E080B2042A00D137
:1039C000C0B24FF0000922072AD53278702A07D0FA
:1039D000DDF800C08CF0100C5CEA0B0C05D00EE09A
:1039E00040228DF80420012208E050EA010306D0AD
:1039F00030238DF804308DF8052002229146009B7B
:103A000083F0080353EA0B030AD150EA010201D103
:103A1000620705D530228DF804204FF001097F1E82
:103A20003278582A04D039A20C920CAA02920BE0E8
:103A30003BA2F9E75B46009AFFF798FA0C9B9B5C68
:103A4000029A521E0292137050EA0102F2D10298B9
:103A500004A9081A00F1200B600702D524F4803471
:103A600000E001275F4502DDA7EB0B0000E000202E
:103A700000EB0B01009003984944401A0390E003C7
:103A800006D453462146179A039800F0A9F9054435
:103A9000002706E001A85246C05D179990476D1CAB
:103AA0007F1C4F45F6DBE0030CD553462146179AA1
:103AB000039800F095F9054404E030205246179928
:103AC00090476D1C0099481E00900029F5DC08E025
:103AD0000298029952460078491C02911799904722
:103AE0006D1CBBF10001ABF1010BF1DC5BE100F0FF
:103AF00065F90544761C307800287FF40DAE19B0C6
:103B00002846BDE8F08F000009280100303132332B
:103B10003435363738396162636465660000000009
:103B200030313233343536373839414243444546F3
:103B300000000000600700D4062708F1070020F00D
:103B40000700F0E80223804603F0004C5FEA0C0017
:103B500001D097A009E0200501D596A005E0E00777
:103B600001D095A001E0AFF24C001390307823F023
:103B7000004365280CD006DC452809D046281DD016
:103B800047287FD13BE0662818D067287AD136E0F5
:103B90000021112F01DB112000E0781CCDE900018C
:103BA00004A90CA8FFF7EEFCDDE90D010C9A4FF01B
:103BB000000B07F10109109200914EE04FF0004018
:103BC0000097CDE9011004A90CA8FFF7DBFCDDE9A3
:103BD0000D020C9B0F994FF0000B91461093009231
:103BE00011B9791C00EB0109B7EB090003D4C0F14E
:103BF000FF3B07F10109A9EB0700019042E0012F0B
:103C000000DA01270021112F01DD112000E03846E4
:103C1000CDE9000104A90CA8FFF7B4FCDDE90D0112
:103C20000C9A00914FF0000BB946109221070FD467
:103C3000009A4A4503DA914601E0A9F10109B9F178
:103C4000010F05DD109AA9F10101515C3029F4D072
:103C5000B84202DA10F1040F03DA0121CDE90110B4
:103C600010E0002803DC8344A9EB000102E0411CC2
:103C7000494500DD8946A0EB0B00401C01904FF048
:103C800000400290200705D40198484502DB4FF020
:103C9000FF30019000208DF84B0002980DF14B078A
:103CA000B0F1004F25D002200C902B200D900298EF
:103CB00000280CDA404202902D200D9007E00A21E6
:103CC0000298FFF73DF93031029007F8011D0C9979
:103CD000481E0C900029F2DC02980028EFD1791ED2
:103CE0000D980870307800F0200040F0450007F88B
:103CF000020D11A8C01BC01D02901398007800B1DE
:103D0000012000EB0901019801EBE07102980144E8
:103D10000398401A401E0390E00306D45346214600
:103D2000179A039800F05CF805441398007818B1CE
:103D30005246179990476D1CE00323D55346214600
:103D4000179A039800F04CF805441BE0BBF1000FF4
:103D500007DB0098584504DD1098179910F80B0000
:103D600001E0179930205246904701980BF1010B62
:103D7000401E05F10105019004D12E2052461799ED
:103D800090476D1CB9F10001A9F10109DEDC05E0E5
:103D900017F8010B5246179990476D1C0299481E5F
:103DA00002900029F4DC53462146179A03989EE6B8
:103DB0002D0000002B000000200000002DE9F04144
:103DC000044600251E461746880404D405E03946FB
:103DD0002020B0476D1C641EF9D52846BDE8F0814F
:103DE0002DE9F041044600251E469046C80301D542
:103DF000302700E02027880404D505E041463846F6
:103E0000B0476D1C641EF9D52846BDE8F08100005E
:103E100008001000200040008000000100020004A3
:103E2000100F0E0D0C0B0A0908070605040302010A
:103E3000503E00080000002078020000EC3400082A
:103E4000883E0008780200206023000074350008D6
:103E500073900184A24A04100901020304060708B2
:103E6000090C1A0C01400432096A574001FF01FF96
:103E70005113E90E0218082D010203040400090081
:083E8000060708090204060808
:0400000508000131BD
:00000001FF
