:020000040800F2
:1000000018470020E1180008290600082B06000800
:100010002F0600083306000837060008000000001D
:100020000000000000000000000000003B06000887
:100030003D060008000000003F06000841060008D9
:10004000FB180008FB180008FB180008FB18000844
:10005000FB180008FB180008FB180008FB18000834
:10006000FB180008FB180008FB180008FB18000824
:10007000FB180008FB180008FB180008FB18000814
:10008000FB180008FB180008FB180008FB18000804
:10009000FB180008FB180008FB180008FB180008F4
:1000A000FB180008FB180008FB180008FB180008E4
:1000B000FB180008FB180008FB180008FB180008D4
:1000C000FB180008FB180008FB180008FB180008C4
:1000D000FB180008FB180008D71500081B170008BC
:1000E000FB180008FB180008FB180008FB180008A4
:1000F000FB180008FB180008FB180008FB18000894
:10010000FB180008FB180008FB180008FB18000883
:10011000EB170008FB180008FB180008FB18000884
:10012000FB180008FB180008FB180008FB18000863
:1001300000F002F800F05AF80AA090E8000C82449F
:100140008344AAF10107DA4501D100F04FF8AFF27C
:10015000090EBAE80F0013F0010F18BFFB1A43F0A5
:100160000103184784570000A45700000A4410F800
:10017000014B14F00F0508BF10F8015B240908BFFC
:1001800010F8014B6D1E05D010F8013B6D1E01F8F3
:10019000013BF9D1641E03D0641E01F8015BFBD161
:1001A0009142E4D37047000000230024002500267C
:1001B000103A28BF78C1FBD8520728BF30C148BFCA
:1001C0000B607047662904F05783642903F0B680FA
:1001D000002070471FB503F0F3FB0400002000214E
:1001E00004F05CF9E0601FBD10B510BD03F004FD24
:1001F0001146FFF7EFFF00F0E4F803F022FD03B42F
:10020000FFF7F2FF03BC01F035F9000070B50546B9
:10021000E148D0F81022E148016828469047064698
:10022000DD488479012E47D1C4EB0410C0EBC41023
:10023000DB4901EB80004470D748007BC4EB04111C
:10024000C1EBC411D64A02F8210000202BE0D249AC
:10025000103151F83020C4EB0411C1EBC411D04B64
:1002600003EB8101091D41F82020CB49103101EB3E
:10027000C0010A79C4EB0411C1EBC41103EB810185
:1002800001F582710A54C449103101EBC001CA88DA
:10029000C4EB0411C1EBC41103EB810101F5A271A0
:1002A00021F81020401CC4EB0411C1EBC411BC4A5E
:1002B00012F821108142CADC70BD10B5024600233D
:1002C000002003E0145C1C44E3B2401C4C1E84423A
:1002D000F8DC481E105C984201D1012010BD0020BE
:1002E000FCE7302805DB392803DCA0F13001C8B277
:1002F0000CE0412803DB5A2801DCC0B206E061288B
:1003000003DB7A2801DCC0B200E0FF2070472DE952
:10031000F04705460C4617461E46DDE9088900F001
:10032000D6FEB0209F490880084601889E4802F00A
:10033000AFFD10232A460221302000F053FF002099
:1003400000F0C6FF234610220021084600F09FFF60
:1003500000BF964800780028FBD0102332460021C9
:10036000184600F03FFF00BF914800680028FBD00E
:10037000102342460021182000F034FF00BF8D48B2
:1003800000680028FBD010233A460021082000F026
:1003900029FF0124234610220021084600F077FFA0
:1003A0002046BDE8F087302805D03D2807D103223C
:1003B0007E4B1A7003E006227C4B1A7000BF00BF10
:1003C00070472DE9F04F91B0734890F806B04FF0A8
:1003D000000A79A103C9CDE90B0179A000680A9050
:1003E00078A00068099078A00068089000F0D8FF15
:1003F0004FF4E13001F04CF84FF4612001F0A3F824
:100400004FF4E13001F03DF94FF4612001F099F92A
:1004100000F0E5FD00F0C0FB4FF4347140F28F10A6
:1004200000F000FA694800F0A5FB4FF4A06001F06D
:1004300077FA08A809AB0AAA5146CDE9000B0BA828
:10044000FFF765FF824662A002F06CFF9CE0554812
:10045000008800F076FF642000F0DFFF5448016858
:1004600060A002F05FFF6148016861A002F05AFFDE
:10047000002413E004F13D015F4A32F9110004F059
:1004800017F906464FF08E4104F050F805465B49D7
:1004900004F026F90DA941F82400641C43480078B3
:1004A0008442E7DB4148007803281DD10F9804F00F
:1004B00011F805460E460E9804F00CF807468846DB
:1004C0000D9804F007F8CDE906013A480068CDE937
:1004D0000078CDE9025604900B4649A0069A02F036
:1004E00021FF0020314908704D48007828B12D487F
:1004F0000088001F2B49088004E02A480088001D5E
:100500002849088027480188274802F0C1FC25486F
:100510000088B02802DB012041490870214800888A
:10052000602802D100203E4908703E48007860B142
:100530004FF0000905E000F0D6FB09F1010000F0E2
:10054000FF09B9F1030FF6DD0BE04FF0000905E0FC
:1005500000F0DFFB09F1010000F0FF09B9F1030F22
:10056000F6DD14480068B0F59B7F02D300202D49CA
:100570000870104800685A2802D8012029490870DC
:100580000C48006800F0A4FEBAF1000F7FF45FAFE2
:10059000002011B0BDE8F08F2000002008000020EE
:1005A0007C02002002000020000400400000002027
:1005B000500200204C0200206469733A00000000E1
:1005C0004D0000004A00000044000000A70300089E
:1005D000582C582C592C592C5A2C5A2C442C440D3C
:1005E0000A000000642C2564000000005402002072
:1005F0002C732C25640D0A003812002000003443AF
:10060000582C252E33662C592C252E33662C5A2C2B
:10061000252E33662C6D642C25640D0A0000000025
:100620000400002005000020704700BFFEE700BF67
:10063000FEE700BFFEE700BFFEE770477047704768
:10064000704700000CB50020019000906C480068D5
:1006500040F480306A49086000BF6948006800F4CF
:10066000003000900198401C0190009818B9019842
:10067000B0F5A06FF1D16248006800F4003010B10D
:100680000120009001E0002000900098012843D153
:100690005C48006840F010005A490860084600684D
:1006A00020F0030008600846006840F0020008607F
:1006B00053484068524948600846406848600846C8
:1006C000406840F4806048600846406820F47C1030
:1006D00048600846406840F4E810486008460068F2
:1006E00040F08070086000BF4548006800F000706E
:1006F0000028F9D04248406820F003004049486093
:100700000846406840F00200486000BF3C4840682E
:1007100000F00C000828F9D10CBD10B5FFF792FFCE
:1007200010BD10B53648006840F00100344908603B
:100730000846406834490840314948600846006826
:10074000324908402E4908600846006820F480209D
:1007500008600846406820F4FE0048604FF41F001F
:100760008860FFF7DAFF4FF000602949086010BD8C
:1007700010B5002100200022214B5B6803F00C0122
:1007800021B1042906D0082928D107E0214B224CA9
:10079000236027E01F4B204C236023E0184B5B684D
:1007A00003F47010164B5B6803F48032022303EBF2
:1007B000904022B9194B4343174C23600DE0104B76
:1007C0005B6803F4003323B1144B4343124C2360A2
:1007D00003E0104B4343104C236003E00D4B0E4CE1
:1007E000236000BF00BF064B5B68C3F303130C4CD0
:1007F000E15C094B1B68CB40074C236010BD000037
:1008000000100240002002400000FFF8FFFFF6FE4B
:1008100008ED00E000127A000C00002000093D0005
:100820001000002030B589B005460C460121022099
:1008300001F00DFC0121092001F0FCFB01211E4803
:1008400001F00DFA2120ADF8200018208DF82300CA
:1008500003208DF8220008A9184801F02FF9ADF8FF
:100860001850ADF814400020ADF81A00ADF816008D
:1008700005A9134801F016FD7020ADF80400012011
:10088000ADF806000220ADF80C0001A90C4801F0FB
:1008900088FD01A90A4801F0D1FD0821084802F0AD
:1008A00096F90821064802F09FF90121044802F058
:1008B00055F809B030BD000000081A00000C0140D6
:1008C0000004004001460A46107A00EB4000400058
:1008D000103070472DE9F84306460F46344620781D
:1008E00033490979884208D1607831494979884289
:1008F00003D12F480068B84202D90020BDE8F88330
:10090000207A102804D0207A402801D00020F5E772
:100910003046FFF7D7FFB84201D00020EEE7394656
:10092000304600F062F808B90020E7E7E078204997
:10093000887160688860207A0873002532E005EBD2
:10094000450104F1090000EB4100C178184810305E
:1009500000EBC500017105EB450104F1090000EB56
:10096000410081881248103000EBC500C18005EBC2
:10097000450104F1090000EB41000188ADF80010C9
:1009800080788DF80200009800F016F8814603F098
:100990008FFE8046074903F0C9FD0549103141F833
:1009A00035006D1C207AA842C9DC0120A6E70000B2
:1009B0002000002000007A4401B569460878000252
:1009C0004B7840EA03408B7840EA0362D01702EB91
:1009D0001060001208BD01B5694608784A7840EAFF
:1009E00002208A7840EA024008BD30B5024613462C
:1009F0000024002003E01D5C2544ECB2401C4D1E89
:100A00008542F8D8481E185CA04201D1012030BDB3
:100A10000020FCE72DE9F04103460C4600200025AC
:100A2000002600270021002284462CE06D1C30297E
:100A300006DB392904DCA1F1300808F0FF0212E0DE
:100A4000612906DB662904DCA1F1570808F0FF02E2
:100A500009E0412906DB462904DCA1F1370808F04A
:100A6000FF0200E00FE0BCF1000F03D116464FF08B
:100A7000010C07E0174647EA061804F80080401CFE
:100A80004FF0000C00BF13F80580B8F10001CDD184
:100A9000BDE8F08110B50023002203E0845C1C4413
:100AA000E3B2521C4C1E9442F8D84A1E835410BD27
:100AB00010B502460B460020002103E0545C0444BC
:100AC000E0B2491C9942F9D310BD3EB505462E4807
:100AD0002E4909684554007855284AD12B480068AA
:100AE000401C2A490860084600680B283AD10A21B0
:100AF0002548FFF7DDFF04462348807AA04231D124
:100B00002148407853282DD11F48C0781E49897844
:100B100041EA002080B2ADF800001B4840791A4934
:100B2000097941EA002080B2ADF802001648C07988
:100B30001549897941EA002080B2ADF804001248D5
:100B4000407A1149097A41EA002080B2ADF80600E6
:100B50000F48009901600199416003213D200D4A31
:100B600012689047094800680A2802D900200749FE
:100B700008603EBD014611B96FF005007047054899
:100B800001600020FAE700002C120020380200204B
:100B9000B21200203402002008B50121102001F01B
:100BA00049FA3C20ADF8000010208DF80300032026
:100BB0008DF8020069468D4800F080FF3C218B488B
:100BC00001F02BF808BD10B50421884801F025F884
:100BD0000821864801F01FF81021844801F01BF815
:100BE0002021824801F017F810BD10B504217F487C
:100BF00001F013F808217D4801F00FF810217B481F
:100C000001F009F82021794801F005F810BD10B570
:100C10000421764800F0FFFF0821744800F0FDFF32
:100C20001021724800F0F7FF2021704800F0F3FF18
:100C300010BD10B504216D4800F0EDFF08216B4890
:100C400000F0EBFF1021694800F0E7FF2021674822
:100C500000F0E1FF10BD10B50421644800F0DBFF97
:100C60000821624800F0D7FF1021604800F0D5FF4E
:100C700020215E4800F0CFFF10BD10B504215B4875
:100C800000F0C9FF0821594800F0C5FF102157485E
:100C900000F0C3FF2021554800F0BFFF10BD10B584
:100CA0000421524800F0B7FF0821504800F0B3FF7C
:100CB00010214E4800F0AFFF20214C4800F0ADFF5E
:100CC00010BD10B50421494800F0A7FF082147488E
:100CD00000F0A1FF1021454800F09DFF202143486E
:100CE00000F09BFF10BD10B5FFF76DFF032000F073
:100CF00094FBFFF78CFF032000F08FFBFFF7ABFFA7
:100D0000032000F08AFBFFF7CAFF032000F085FBF9
:100D100010BD10B5FFF7C3FF032000F07EFBFFF707
:100D20009AFF032000F079FBFFF771FF032000F02A
:100D300074FBFFF748FF032000F06FFB10BD10B5F8
:100D40002B48006800F0C4FA4FF47A7000F065FB9D
:100D50004FF47A7000F061FB4FF47A7000F05DFBA5
:100D600000BF234800686B280FD921480068F0288D
:100D70000BD2FFF7CEFF10231E4A0021602000F0A7
:100D800031FA1B48006800F0A3FA1948006864288B
:100D90000BD2FFF7A8FF1023174A0021482000F0CC
:100DA00021FA1348006800F093FA11480068F0280F
:100DB0000BD9FFF7AEFF10230E4A0021302000F0C0
:100DC00011FA0B48006800F083FA094800686B28A4
:100DD000C7D8074800686428C3D31023074A0021F6
:100DE000602000F0FFF9012010BD0000001001405C
:100DF0004C0200203C0200203F0200204202002062
:100E000006E041F6650100E0491E0029FCD1401EC4
:100E10000028F6D17047014605E0002001E0421CA1
:100E2000D0B27B28FBDB0A1EA1F10101F5D170478E
:100E300010B54FF48071FA4800F0EDFE4FF40071E8
:100E4000F74800F0E8FE4FF40071F54800F0E5FEC9
:100E50004FF48071F24800F0E0FE10BD10B54FF481
:100E60008071EF4800F0D9FE4FF40071EC4800F0BB
:100E7000D4FE4FF40071EA4800F0CDFE4FF48071CB
:100E8000E74800F0C8FE10BD10B54FF48071E4488B
:100E900000F0C1FE4FF48071E14800F0BEFE10BDCD
:100EA00070B504464FF48071DD4800F0B6FE0025B1
:100EB00020E04FF48071DA4800F0AFFE04F08006C5
:100EC000802E04D1B100D64800F0A5FE04E04FF416
:100ED0000071D34800F0A1FE6006040E4FF480714B
:100EE000CF4800F098FE4FF48071CD4800F095FE99
:100EF000681CC5B2082DDCDB4FF48071C84800F0D7
:100F00008CFE4FF48071C64800F085FE70BD10B5B0
:100F10000446FFF78DFF7820FFF7C2FFFFF7B4FF0D
:100F20000020FFF7BDFFFFF7AFFF2046FFF7B8FF38
:100F3000FFF7AAFFFFF792FF10BD10B50446FFF7B9
:100F400077FF7820FFF7ACFFFFF79EFF4020FFF709
:100F5000A7FFFFF799FF2046FFF7A2FFFFF794FFD7
:100F6000FFF77CFF10BD70B504460D461DB1E0B221
:100F7000FFF7E3FF02E0E0B2FFF7C9FF70BD70B515
:100F800004460D4605F1B0000021FFF7ECFF1021EB
:100F900041EA14100021FFF7E6FF04F00F000021E2
:100FA000FFF7E1FF70BD10B500218D20FFF7DBFFDB
:100FB00000211420FFF7D7FF0021AF20FFF7D3FF58
:100FC00010BD10B500218D20FFF7CDFF00211020AE
:100FD000FFF7C9FF0021AE20FFF7C5FF10BD08B520
:100FE0000121082001F026F84FF44070ADF8000010
:100FF00010208DF8030003208DF802006946884810
:1010000000F05CFD4FF44071854800F004FE1020B4
:10101000FFF7F6FE0021AE20FFF7A5FF00214020DC
:10102000FFF7A1FF0021B020FFF79DFF0021C8209E
:10103000FFF799FF00218120FFF795FF0021FF2096
:10104000FFF791FF0021A120FFF78DFF0021A620CF
:10105000FFF789FF0021A820FFF785FF00211F204F
:10106000FFF781FF0021D320FFF77DFF0021084615
:10107000FFF779FF0021D520FFF775FF0021F02051
:10108000FFF771FF0021D920FFF76DFF002122201B
:10109000FFF769FF0021DA20FFF765FF002102203A
:1010A000FFF761FF0021DB20FFF75DFF00214920F2
:1010B000FFF759FF00218D20FFF755FF0021142075
:1010C000FFF751FF0021AF20FFF74DFF08BD70B5BE
:1010D000002418E004F1B0000021FFF744FF0021D4
:1010E0000846FFF740FF00211020FFF73CFF0025D6
:1010F00005E001210020FFF736FF681CC5B2802DF6
:10110000F7DB601CC4B2082CE4DB70BD70B50024B2
:1011100018E004F1B0000021FFF725FF0021084688
:10112000FFF721FF00211020FFF71DFF002505E03C
:1011300001210846FFF717FF681CC5B2802DF7DBB9
:10114000601CC4B2082CE4DB70BD2DE9F0470746F3
:101150000E469046994600250024A8F12000C5B20D
:101160007F2F02DD0027B01CC6B2B9F1100F24D1C9
:1011700031463846FFF703FF002408E004EB051171
:10118000284A505C0121FFF7EEFE601CC4B2082C17
:10119000F4DB701CC1B23846FFF7F1FE002409E011
:1011A00004EB051108311F4A505C0121FFF7DBFEFB
:1011B000601CC4B2082CF3DB12E031463846FFF75E
:1011C000DEFE00240AE005EB4501174A02EB41016F
:1011D000085D0121FFF7C7FE601CC4B2062CF2DBDC
:1011E000BDE8F0872DE9F04104460F4615469846C4
:1011F00000260FE0AA5D434639462046FFF7A5FFCB
:1012000004F10800C4B2782C02DD0024B81CC7B277
:10121000701CC6B2A85D0028ECD1BDE8F0810000CA
:10122000000C0140A44A00087C4800082DE9F04168
:1012300080460E461546002731464046FFF79FFE82
:1012400000240AE01C4A02EB8511085D0121FFF72A
:101250008AFE781CC7B2601CC4B2102CF2DB701C72
:10126000C1B24046FFF78BFE00240CE06900491C28
:10127000114A02EB4111085D0121FFF774FE781C51
:10128000C7B2601CC4B2102CF0DBBDE8F0812DE9C0
:10129000F04106460F4614461D4639463046FFF7D4
:1012A0006EFE05F13000C2B2234639463046FFF7E4
:1012B0004CFFBDE8F08100009450000810B5FFF726
:1012C0008EFEFFF704FF10BD10B5FFF700FF10BD45
:1012D0002DE9F04104464FF47A70B4FBF0F00A2196
:1012E000B0FBF1F201FB12056420B4FBF0F0B0FB9F
:1012F000F1F201FB12060A20B4FBF0F0B0FBF1F2B0
:1013000001FB12070A20B4FBF0F100FB11482B4649
:10131000102202215020FFF7BAFF3346102202218B
:101320005820FFF7B4FF3B46102202216020FFF750
:10133000AEFF4346102202216820FFF7A8FFBDE858
:10134000F0812DE9F0410446642094FBF0F00A217D
:1013500090FBF1F201FB1200C5B20A2094FBF0F001
:1013600090FBF1F201FB1200C6B20A2094FBF0F1EF
:1013700000FB1140C7B22B46102202210846FFF79E
:1013800086FF3346102202210A20FFF780FF3B46EA
:10139000102202211220FFF77AFFBDE8F081000041
:1013A00010B56FF0040000F00AFB2E4800682E49CB
:1013B000B0FBF1F02D4908700846007800EB4001C1
:1013C000C1EBC0104FF6FF7101EAC0002849088048
:1013D00010BD0146254A12784A434FF0E0235A6176
:1013E00000229A611A46126942F001021A6100BF96
:1013F0004FF0E022106900F001021AB100F48032CF
:10140000002AF5D04FF0E022126922F001024FF0DD
:10141000E0231A6100229A6170470146144A12883B
:101420004A434FF0E0235A6100229A611A4612693A
:1014300042F001021A6100BF4FF0E022106900F093
:1014400001021AB100F48032002AF5D04FF0E022F8
:10145000126922F001024FF0E0231A6100229A6122
:10146000704700000C00002000127A0046020020A5
:101470004802002000BF704700BFFE4A128802F0F9
:101480004002002AF9D0C2B2FA4B1B1D1A807047E5
:1014900010B586B00446012144F2040000F0CAFDF4
:1014A0004FF40070ADF8140003208DF816001820DA
:1014B0008DF8170005A9F04800F000FB4FF480609C
:1014C000ADF8140004208DF8170005A9EA4800F0D3
:1014D000F5FA25208DF8000002208DF801008DF826
:1014E000020001208DF80300684600F01EFA019406
:1014F0000020ADF80800ADF80A00ADF80C00ADF81A
:1015000010000C20ADF80E0001A9DA4801F047FDEB
:101510000121D84801F0CFFD06B010BD10B504463A
:1015200000BF8021D34801F0A1FE0028F9D0214658
:10153000D04801F02DFE00BF4021CE4801F096FEBC
:101540000028F9D010BD10B586B004460121CB4863
:1015500000F07DFD0420ADF8140003208DF8160086
:1015600018208DF8170005A9C34800F0A7FA082035
:10157000ADF8140004208DF8170005A9BE4800F04E
:101580009DFA26208DF8000001208DF801008DF8CD
:1015900002008DF80300684600F0C7F901940020AE
:1015A000ADF80800ADF80A00ADF80C00ADF8100079
:1015B0000C20ADF80E0001A9B14801F0F0FC0122A9
:1015C00040F22551AE4801F082FD0121AC4801F006
:1015D00072FD06B010BD70B5002540F22551A84837
:1015E00001F05AFE00284BD0A54801F0D5FD572840
:1015F00002D10120A3490870A248007800283FD0FA
:101600009F4801F0C9FDC1B29F4802780078401C94
:101610009D4B18709D4881541846007810282FD192
:101620009A48007857282BD1002405E09748005DA0
:10163000284485B2601CC4B20F2CF7DBE8B2934992
:10164000C97B884217D19148C07A0E2813D08F48A1
:10165000C07AFF280FD08D48807A00048B49497AE0
:1016600040EA01208949097A084389490860874886
:10167000C07A884908600020834908708149087051
:1016800070BD10B586B004460121834800F0DFFC30
:101690004FF48060ADF8140003208DF81600182078
:1016A0008DF8170005A9744800F008FA4FF400609F
:1016B000ADF8140004208DF8170005A96E4800F05D
:1016C000FDF927208DF8000001208DF8010002208F
:1016D0008DF8020001208DF80300684600F025F91E
:1016E00001940020ADF80800ADF80A00ADF80C0038
:1016F000ADF810000C20ADF80E0001A9674801F00C
:101700004EFC012240F22551644801F0E0FC012129
:10171000624801F0D0FC06B010BD10B540F2255172
:101720005E4801F0B9FD58B15C4801F035FDC4B226
:101730002046FFF7CAF940F22551584801F0D6FD7E
:1017400010BD10B586B004460121C80400F07FFC2E
:101750000121112000F06EFC4FF48060ADF8140000
:1017600003208DF8160018208DF8170005A94C48A5
:1017700000F0A4F94FF40060ADF8140004208DF8D7
:10178000170005A9464800F099F934208DF80000AB
:1017900001208DF8010002208DF8020001208DF853
:1017A0000300684600F0C1F801940020ADF808007D
:1017B000ADF80A00ADF80C00ADF810000C20ADF843
:1017C0000E0001A9374801F0EAFB012240F2255141
:1017D000344801F07CFC0121324801F06CFC4021CE
:1017E000304801F050FD06B010BD70B5002540F244
:1017F00025512C4801F050FD002868D0294801F0FF
:10180000CBFC572802D101202749087026480078D0
:1018100000285CD0234801F0BFFCC1B22348027805
:101820000078401C214B18702148815418460078DC
:1018300010284CD11E480078572848D1002405E0D4
:101840001B48005D284485B2601CC4B20F2CF7DB36
:10185000E8B21749C97B884234D11548C07A0E28AE
:1018600030D01348C07AFF282CD01148807A000469
:101870000F491FE000380140000801400400020049
:101880000044004065020020640200204829002036
:1018900050020020540200200800040000480040CC
:1018A00000100140004C004067020020660200204A
:1018B000E8380020497A40EA01200549097A0843BE
:1018C000044908600020044908700449087070BD8C
:1018D000E83800204C020020660200206702002049
:1018E0000948804709480047FEE7FEE7FEE7FEE7B4
:1018F000FEE7FEE7FEE7FEE7FEE7FEE704480549F0
:10190000054A064B70470000230700083101000814
:1019100018410020184700201843002018430020D9
:1019200031490143314A1160704770B500210023ED
:101930000F22C47804B32D4C246804F4E064C4F589
:10194000E064210AC1F10403CA40447804FA03F1B7
:101950008478144021430901254C0678A155047868
:1019600004F01F050124AC4005786D11AD0005F1B0
:10197000E025C5F8004109E0047804F01F050124C2
:10198000AC401C4D0678761145F8264070BD1A4AC9
:101990000A400243154B1B1F1A60704739B1134AA6
:1019A000121D12680243114B1B1D1A6006E00F4AFC
:1019B000121D126882430D4B1B1D1A6070470428CC
:1019C00008D14FF0E021096941F004014FF0E02215
:1019D000116107E04FF0E021096921F004014FF0A7
:1019E000E0221161704700000000FA050CED00E0F4
:1019F00000E400E080E100E080FFFF1F10B5044636
:101A0000CC48844208D10121042000F02DFB0021A4
:101A1000042000F029FB46E0C748844208D1012198
:101A2000082000F021FB0021082000F01DFB3AE017
:101A3000C248844208D10121102000F015FB00218A
:101A4000102000F011FB2EE0BD48844208D1012196
:101A5000202000F009FB0021202000F005FB22E0FF
:101A6000B848844208D10121402000F0FDFA00214D
:101A7000402000F0F9FA16E0B348844208D1012171
:101A8000802000F0F1FA0021802000F0EDFA0AE059
:101A9000AE48844207D10121801500F0E5FA00210B
:101AA000A01500F0E1FA10BD10B50121084600F0C4
:101AB000DBFA0021012000F0D7FA10BD2DE9F0413A
:101AC000024600250026002000230024002791F86C
:101AD00003C00CF00F0591F803C00CF0100CBCF122
:101AE000000F03D091F802C04CEA050591F800C040
:101AF000BCF1000F31D0146800202BE04FF0010C36
:101B00000CFA00F3B1F800C00CEA03069E4220D1A3
:101B100083004FF00F0C0CFA03F7BC4305FA03FCEB
:101B20004CEA040491F803C0BCF1280F06D14FF031
:101B3000010C0CFA00FCC2F814C00AE091F803C0D2
:101B4000BCF1480F05D14FF0010C0CFA00FCC2F8B3
:101B500010C0401C0828D1D31460B1F800C0BCF1FB
:101B6000FF0F34DD546800202EE000F1080C4FF028
:101B7000010808FA0CF3B1F800C00CEA03069E4213
:101B800021D183004FF00F0C0CFA03F7BC4305FA88
:101B900003FC4CEA040491F803C0BCF1280F05D102
:101BA00000F1080C08FA0CF8C2F8148091F803C090
:101BB000BCF1480F07D100F1080C4FF0010808FAFA
:101BC0000CF8C2F81080401C0828CED35460BDE841
:101BD000F0814FF6FF710180022181700421C170F4
:101BE00070470246002093680B400BB1012000E0D3
:101BF000002070470146886880B270470246002086
:101C0000D3680B400BB1012000E000207047014673
:101C1000C86880B2704701617047416170470AB17E
:101C2000016100E041617047C16070474FF480324C
:101C30000A438261816182618269826970470246DA
:101C40000020434B18684FF68073184040EA02109A
:101C500008433F4B186070473E49C8617047F0B574
:101C60000A46002300240021002500F00046B6F1BA
:101C7000004F02D1364EF16901E0354E7168C0F374
:101C8000034583B200F44016B6F5401F08D121F099
:101C900070612F4E766826F070662D4F7E6012E0E0
:101CA00000F48016B6F5801F06D1032606FA05F467
:101CB000A14341F0706106E0460D360103FA06F6D5
:101CC000B14341F0706122B1460D360103FA06F6C8
:101CD000314300F00046B6F1004F02D11C4EF161D5
:101CE00001E01B4E7160F0BD30B500228B071C0F68
:101CF0000F2303FA04F2164B08338C1053F82430E8
:101D00009343134C08348D1044F8253023468C102F
:101D100053F824308C07240F00FA04F423430C4CAE
:101D200008348D1044F8253030BD0A49DC31086094
:101D30007047000000080140000C01400010014005
:101D40000014014000180140001C01400020014027
:101D50000000014000002042DF48006840F0010020
:101D6000DD49086008464068DC490840DA494860B7
:101D700008460068DA490840D74908600846006804
:101D800020F4802008600846406820F4FE00486087
:101D90004FF41F0088607047CF49096821F48031F3
:101DA000CD4A11601146096821F480211160B0F517
:101DB000803F03D0B0F5802F0ED106E0C6490968F8
:101DC00041F48031C44A116007E0C349096841F415
:101DD000A021C14A116000E000BF00BF704710B5EC
:101DE00001460022002300204A11012A02D1BA4CE8
:101DF000236806E0022A02D1B74C236A01E0B64C00
:101E0000636A01F01F02012494401C400CB10120C0
:101E100000E0002010BD38B500200090002400250F
:101E200000BF3120FFF7DBFF05460098401C009003
:101E30000098B0F5A06F01D0002DF2D03120FFF74F
:101E4000CEFF08B1012400E00024204638BD014641
:101E50000020A14A106820F0F80040EAC10010609C
:101E60007047A04908607047024600209A4B5868A6
:101E700020F47C1042EA01031843974B58607047E6
:101E800098490866704701460020934A506820F040
:101E900003000843506070478F48406800F00C0012
:101EA0007047014600208C4A506820F0F00008433B
:101EB0005060704701460020874A506820F4E06077
:101EC00008435060704701460020834A506820F460
:101ED000605040EAC1005060704729B17E4A527A92
:101EE00002437D4B5A7204E07B4A527A82437A4B1A
:101EF0005A7270477B49D83108607047014600200C
:101F0000754A506820F440400843506070470021F3
:101F1000714A20321170704A82F82010012802D0D4
:101F200004280AD104E001216B4A2032117005E037
:101F30000521694A2032117000E000BF00BF7047E0
:101F40006949086070476449096A0143624A11623D
:101F50007047654944390860704730B50021002258
:101F6000002400235C4D6D6805F00C0121B10429AB
:101F700005D0082923D105E05C4D056022E05B4DCA
:101F800005601FE0544D6D6805F47012524D6D6888
:101F900005F48034022505EB92421CB9544D55439B
:101FA00005600BE04C4D6D6805F400351DB1504DDA
:101FB0005543056002E04D4D5543056002E04B4D31
:101FC000056000BF00BF444D6D6805F0F0010909D0
:101FD000484D6B5C0568DD4045603F4D6D6805F41C
:101FE000E061090A434D6B5C4568DD4085603A4D10
:101FF0006D6805F46051C90A3E4D6B5C4568DD4073
:10200000C560354D6D6805F44041890B3A4D6B5CF8
:10201000C568B5FBF3F5056130BD29B12E4A52699B
:1020200002432D4B5A6104E02B4A526982432A4BEA
:102030005A61704729B1284A92690243264B9A6136
:1020400004E0254A92698243234B9A61704729B183
:10205000214AD2690243204BDA6104E01E4AD26968
:1020600082431D4BDA61704729B11B4AD268024393
:10207000194BDA6004E0184AD2688243164BDA60E2
:10208000704729B1144A12690243134B1A6104E0E4
:10209000114A12698243104B1A6170471249403944
:1020A000086070470F49C86470470B49C871704792
:1020B0000948406A40F0807007494862704701460D
:1020C0000020054A92680A400AB1012000E0002081
:1020D0007047014988727047001002400000FFF805
:1020E000FFFFF6FE000042428004424200127A00E6
:1020F00000093D00680200207802002010B5044667
:10210000FE48844208D10121C014FFF7ADFF002131
:10211000E014FFF7A9FFC4E0B4F1804F08D101211A
:102120000846FFF7AEFF00210120FFF7AAFFB8E045
:10213000F348844208D101210220FFF7A2FF0021C9
:102140000220FFF79EFFACE0EE48844208D1012157
:102150000420FFF796FF00210420FFF792FFA0E084
:10216000E948844208D101210820FFF78AFF0021B5
:102170000820FFF786FF94E0E448844208D101215B
:102180001020FFF77EFF00211020FFF77AFF88E084
:10219000DF48844208D101212020FFF772FF00218F
:1021A0002020FFF76EFF7CE0DA48844208D101214D
:1021B0004014FFF759FF00216014FFF755FF70E04E
:1021C000D548844209D10121C804FFF74DFF002101
:1021D0004FF40020FFF748FF63E0D048844209D164
:1021E00001210805FFF740FF00214FF48010FFF7A1
:1021F0003BFF56E0CA48844209D101214805FFF758
:1022000033FF00214FF40010FFF72EFF49E0C548CF
:10221000844208D101214020FFF733FF00214020F4
:10222000FFF72FFF3DE0C048844208D10121802004
:10223000FFF727FF00218020FFF723FF31E0BB4895
:10224000844208D101218015FFF71BFF0021A01552
:10225000FFF717FF25E0B648844209D101210804A1
:10226000FFF702FF00214FF48030FFF7FDFE18E07A
:10227000B048844209D101214804FFF7F5FE00214E
:102280004FF40030FFF7F0FE0BE0AB48844208D17A
:1022900001218804FFF7E8FE00214FF48020FFF7BA
:1022A000E3FE10BD00220288944B98420ED0994B59
:1022B00098420BD0B0F1804F08D0914B984205D096
:1022C000904B984202D0904B984204D14FF68F73B6
:1022D0001A404B881A438D4B984207D08C4B98423A
:1022E00004D04FF6FF431A40CB881A4302808B88F4
:1022F00083850B880385814B98420BD0854B984290
:1023000008D08B4B984205D08A4B984202D08A4B1A
:10231000984201D10B7A038601238382704770B5FE
:10232000002400220023058C4FF6FE7635400584FC
:10233000028C8388048B4FF68F752C40B51E2C4081
:102340000D882C43751E2A400D892A434D882A4347
:102350006A4DA8420BD06F4DA84208D0744DA842D8
:1023600005D0744DA84202D0734DA84213D14FF648
:10237000F7752A404D892A434FF6FB752A408D8810
:102380002A434FF6FF652B404FF6FF552B408D89B2
:102390002B43CD892B4383800483CD88858602849B
:1023A00070BD70B5002400220023058C4FF6EF7637
:1023B00035400584028C8388048B48F6FF752C40D9
:1023C0004FF6FF452C400D884FF6FF7606EA0525AF
:1023D0002C434FF6DF752A400D8906EA05152A437E
:1023E0004D8806EA05152A43444DA84202D0494DBE
:1023F000A8421DD14FF67F752A404D894FF6FF76D2
:1024000006EA05152A434FF6BF752A408D8806EA6D
:1024100005152A434FF6FF352B404FF2FF752B4031
:102420008D8906EA85052B43CD8906EA85052B4370
:1024300083800483CD880587028470BD70B5002435
:1024400000220023058C4FF6FF6635400584028C80
:102450008388848B4FF68F752C404FF6FC752C408B
:102460000D882C434FF6FF552A400D894FF6FF7615
:1024700006EA05252A434D8806EA05252A431F4D0D
:10248000A84202D0234DA8421DD14FF2FF752A4029
:102490004D894FF6FF7606EA05252A434FF6FF35AC
:1024A0002A408D8806EA05252A434EF6FF752B4003
:1024B0004DF6FF752B408D8906EA05152B43CD8916
:1024C00006EA05152B4383808483CD8885870284A3
:1024D00070BD70B5002200230024058C4EF6FF76F7
:1024E00035400584038C8488828B48F6FF752A402A
:1024F0004FF6FF452A400D8820E00000002C0140E7
:102500000004004000080040000C004000100040A3
:102510000014004000340140004C014000500140D4
:102520000054014000180040001C00400020004002
:102530000040014000440140004801404FF6FF7652
:1025400006EA05252A434DF6FF752B400D8906EA5C
:1025500005352B434D8806EA05352B43FA4DA84235
:1025600002D0FA4DA84208D14BF6FF752C408D8958
:102570004FF6FF7606EA85152C4384808283CD884A
:10258000A0F84050038470BD828B4FF2FF331A4095
:102590008283828B4FF6FF7303EA01231A438283FF
:1025A0007047F0B50C461546002200210026078C26
:1025B0004EF6FF7C07EA0C070784828B018C4FF6EE
:1025C000FF7707EA043640F6FF473A404FF6FF77B9
:1025D00007EA05273A434FF6FF7707EA03373A43FE
:1025E000D94FB8420ED0D94FB8420BD0B0F1804F7E
:1025F00008D0D74FB84205D0D64FB84202D0D64FF8
:10260000B84206D14DF6FF77394046F4805739433A
:1026100005E047F6FF57394044F480573943828339
:102620000184F0BD828B4FF6F3731A408283828B54
:102630000A4382837047F0B50C46154600220021FC
:102640000026078C4FF6FF6C07EA0C070784828B85
:10265000018C4FF6FF7707EA04264FF60C773A40D5
:102660004FF6FF7707EA03172F433A43B64FB842B6
:102670000ED0B64FB8420BD0B0F1804F08D0B44F57
:10268000B84205D0B34FB84202D0B34FB84206D1DA
:102690004FF6FF57394046F48077394305E04FF253
:1026A000FF57394044F48077394382830184F0BD79
:1026B000028B4FF2FF331A400283028B4FF6FF73F7
:1026C00003EA01231A4302837047F0B50C4615460E
:1026D000002200210026078C4FF6EF7C07EA0C074A
:1026E0000784028B018C4FF6FF7707EA041640F649
:1026F000FF473A404FF6FF7707EA03373A434FF672
:10270000FF7707EA05273A438F4FB8420ED08F4F25
:10271000B8420BD0B0F1804F08D08D4FB84205D0F1
:102720008C4FB84202D08C4FB84206D14FF6DF77BB
:10273000394046F01007394305E04FF65F773940DE
:1027400044F01007394302830184F0BD028B4FF639
:10275000F3731A400283028B0A4302837047F0B579
:102760000C46154600220021068C4FF6FE773E40AF
:102770000684028B018C4FF60C7632407E1C06EAF2
:1027800003162E433243704EB0420ED06F4EB0420D
:102790000BD0B0F1804F08D06D4EB04205D06D4ED9
:1027A000B04202D06C4EB04206D14FF6FD763140B9
:1027B00044F00106314305E04FF6F576314044F030
:1027C0000106314302830184F0BD70B505460C4615
:1027D0005D4885420ED05D4885420BD0B5F1804FF3
:1027E00008D05B48854205D05A48854202D05A48F5
:1027F000854200D100E000BF208850B92389A2881B
:1028000061882846FFF7ABFFE1882846FFF79EFF67
:1028100025E0208804280AD12389A28861882846D7
:10282000FFF753FFE1882846FFF742FF17E02088B3
:1028300008280AD12389A28861882846FFF7FBFE71
:10284000E1882846FFF7EEFE09E02389A288618827
:102850002846FFF7A6FEE1882846FFF795FE70BDE3
:102860002DE9F04105460C4600260127608808B98D
:10287000022600E00026A088012801D1022700E0FE
:1028800001272088A0B92389A28861882846FFF7FC
:1028900066FFE1882846FFF759FF23893A4631460B
:1028A0002846FFF712FFE1882846FFF701FF13E0F3
:1028B0002389A28861882846FFF707FFE188284618
:1028C000FFF7F6FE23893A4631462846FFF747FFD1
:1028D000E1882846FFF73AFFBDE8F0810A884B8877
:1028E0001A438B881A43CB881A430B891A434B89A6
:1028F0001A438B891A43A0F8442070474FF6FF71A2
:10290000818000210180C1804180017270470021D7
:10291000018041808180C180018141818181C181AB
:102920007047002101804180012181800021C18008
:10293000018170470021018041808180C180018137
:102940004181818170470000002C0140003401402A
:102950000004004000080040000C004021B1028843
:1029600042F00102028004E002884FF6FE731A4032
:102970000280704731B1B0F8442042F40042A0F820
:10298000442005E0B0F84420C2F30E02A0F8442031
:1029900070471AB183890B43838102E083898B439B
:1029A000838170478182704741EA0203A0F8483072
:1029B00070471AB183890B43838102E083898B437B
:1029C0008381704701894FF6F87211400181704789
:1029D0000A46002101894FF68F7319401143018186
:1029E000704730B504460D4629462046FFF7F0FFF4
:1029F000208940F00700208130BD2DE9F0410446D8
:102A00000D4616461F46602D06D13B460122314633
:102A10002046FFF75AFE05E03B460122314620469C
:102A2000FFF79DFE29462046FFF7D2FF208940F0A0
:102A300007002081BDE8F08130B50C4600210189F6
:102A4000C9B24FF6FF7505EA03251543254329430F
:102A5000018130BD2DE9F04105460E4617469846E6
:102A6000002443463A4631462846FFF7E5FF2C89C5
:102A70004FF6F870044044F007044FF68F7004409E
:102A800044F070042C81BDE8F081F0B504460D4699
:102A900016461F463B46324629462046FFF7CCFFE6
:102AA000208940F480402081F0BD018582827047FA
:102AB0000A46002101884FF68F73194011430180A7
:102AC0007047F0B50C4615461E4600210022002333
:102AD0000189028B038C4FF6F877394021434FF67A
:102AE000FC473A4040F201173A434FF6DD773B404E
:102AF0004FF6FF7707EA06172F433B430181028316
:102B00000384F0BD0A460021018B4FF68F731940F4
:102B10001143018370470A460021018B48F6FF7379
:102B200019404FF6FF7303EA0223194301837047EC
:102B30000A460021818B4FF68F7319401143818320
:102B400070470A460021818B48F6FF7319404FF603
:102B5000FF7303EA022319438183704721B102887E
:102B600042F08002028004E002884FF67F731A4030
:102B70000280704721B1828842F00402828004E022
:102B800082884FF6FB731A408280704721B1828899
:102B900042F00802828004E082884FF6F7731A4000
:102BA0008280704721B1828842F00102828004E075
:102BB00082884FF6FE731A40828070470A460021D1
:102BC000018B4FF6F77319401143018370470A4692
:102BD0000021018B4FF2FF7319404FF6FF7303EA98
:102BE00002231943018370470A460021818B4FF667
:102BF000F77319401143818370470A460021818B86
:102C00004FF2FF7319404FF6FF7303EA0223194393
:102C1000818370470A460021018B4FF6FB731940F0
:102C20001143018370470A460021018B4FF6FF33A1
:102C300019404FF6FF7303EA0223194301837047DB
:102C40000A460021818B4FF6FB73194011438183A3
:102C500070470A460021818B4FF6FF3319404FF62B
:102C6000FF7303EA02231943818370470A46002158
:102C7000018B4FF67F7319401143018370470A4659
:102C80000021018BC1F30E014FF6FF7303EA02230B
:102C90001943018370470A460021818B4FF67F73E9
:102CA00019401143818370470A460021818BC1F38B
:102CB0000E014FF6FF7303EA022319438183704725
:102CC0000A460021018C4FF6FD731940114301841F
:102CD00070470A460021018C4FF6F77319401143E3
:102CE000018470470A460021018C4FF6DF731940BA
:102CF0004FF6FF7303EA02131943018470470A4633
:102D00000021018C4FF67F7319404FF6FF7303EAE1
:102D100002131943018470470A460021018C4FF6C3
:102D2000FF5319404FF6FF7303EA0223194301844E
:102D300070470A460021018C4FF2FF7319404FF68D
:102D4000FF7303EA02231943018470470A460021F6
:102D5000018C4DF6FF7319404FF6FF7303EA0233FF
:102D600019430184704730B5002301248C40A3B27D
:102D7000048C9C430484048C02FA01F5ADB22C430C
:102D8000048430BD30B5002304248C40A3B2048CED
:102D90009C430484048C02FA01F5ADB22C430484F4
:102DA00030BD70B5034600200024184618300125B8
:102DB0008D40ACB21D8CA5431D8409B1082909D1F1
:102DC00000EB6100056825F0700505600568154396
:102DD00005600EE00D1FC5F34E052844056825F477
:102DE000E045056005684FF6FF7606EA02263543A2
:102DF000056070BD21B1028842F00202028004E049
:102E000002884FF6FD731A400280704721B1028894
:102E100042F00402028004E002884FF6FB731A407D
:102E20000280704721B1828842F08002828004E0F3
:102E300082884FF67F731A408280704702884FF66F
:102E4000F7731A40028002880A4302807047828822
:102E50004FF68F731A40828082880A4382807047BF
:102E600002894FF6F8731A40028102890A430281EF
:102E7000704702894FF67F731A40028102890A4324
:102E800002817047818470478185704781867047D1
:102E90000187704781877047A0F84010704702880B
:102EA0004FF6FF431A40028002880A4302807047AF
:102EB0000146888E70470146088F70470146888F0B
:102EC00070470146B1F8400070470146888C704752
:102ED0000146088D704702460020138A0B400BB153
:102EE000012000E000207047CA430282704730B5DD
:102EF0000246002000230024158A05EA0103958973
:102F000005EA010413B10CB1012000E0002030BD3E
:102F1000CA4302827047000010B50446FB48844251
:102F200009D101218803FFF79FF800214FF4804069
:102F3000FFF79AF832E0F648844209D101214804AB
:102F4000FFF79FF800214FF40030FFF79AF825E0D3
:102F5000F048844209D101218804FFF792F800214A
:102F60004FF48020FFF78DF818E0EB48844209D138
:102F70000121C804FFF785F800214FF40020FFF776
:102F800080F80BE0E548844208D101210805FFF7ED
:102F900078F800214FF48010FFF773F810BD2DE989
:102FA000F04786B005460E460024A24600BFA14663
:102FB0000027B08900B100BF2F462C8A4CF6FF7065
:102FC0000440F08804432C82AC894EF6F310044090
:102FD000B08831890843718908430443AC81AC8AC5
:102FE0004FF6FF400440B0890443AC8201A8FEF7CD
:102FF000B4FFC648874202D1DDF810A001E0DDF839
:103000000CA0A88900F4004040B10AEBCA0000EB14
:103010000A1031684900B0FBF1F807E00AEBCA007A
:1030200000EB0A1031688900B0FBF1F86420B8FBAE
:10303000F0F004012009642101FB1089A88900F443
:10304000004040B1322000EBC900B0FBF1F000F0CD
:103050000700044308E0322000EB09106421B0FBB4
:10306000F1F000F00F0004432C8106B0BDE8F087BA
:103070004FF41651016000218180C18001810C2133
:10308000418100218181704710B502460020108ADD
:103090004FF2FF0318400B884C8823438C8823434E
:1030A000CC8823431843108210BD00210180418049
:1030B0008180C180704721B1828942F400528281AF
:1030C00004E082894DF6FF731A4082817047F0B5A3
:1030D0000346002400260025002040F66A17B94266
:1030E00000D100BF1846C1F3421401F01F060127AA
:1030F00007FA06F5012C01D10C3004E0022C01D1B5
:10310000103000E014301AB107682F43076002E066
:103110000768AF430760F0BD1AB1838A0B4383820F
:1031200002E0838A8B4383827047028A4FF6F073F2
:103130001A400282028A0A430282704782894FF251
:10314000FF731A40828182890A438281704721B1CC
:10315000828942F00202828104E082894FF6FD7387
:103160001A4082817047028A4FF6DF731A4002824A
:10317000028A0A430282704721B1028A42F48042E5
:10318000028204E0028A4BF6FF731A400282704703
:10319000C1F308028280704701468888C0F30800A6
:1031A0007047818941F0010181817047028BD2B261
:1031B0000283028B42EA012202837047028B02F4EF
:1031C0007F420283028B0A430283704721B1828AC5
:1031D00042F02002828204E0828A4FF6DF731A40B6
:1031E0008282704721B1828A42F01002828204E01A
:1031F000828A4FF6EF731A408282704721B1828A29
:1032000042F00802828204E0828A4FF6F7731A4085
:103210008282704721B1828942F40042828103E0B8
:103220008289C2F30E028281704721B1828A42F400
:103230000062828204E0828A4FF2FF731A40828227
:103240007047828A4FF6FB731A408282828A0A4351
:103250008282704721B1828A42F00202828204E0B7
:10326000828A4FF6FD731A40828270470246002020
:10327000B1F5007F00D100BF13880B400BB10120D6
:1032800000E00020704701F40072B2F5007F00D129
:1032900000BFCA430280704770B502460024002375
:1032A0000025002040F66A16B14200D100BFC1F3EC
:1032B000421501F01F03012606FA03F3012D02D186
:1032C0009689334006E0022D02D1168A334001E090
:1032D000968A33400C12012606FA04F4168834400C
:1032E00013B10CB1012000E0002070BD10B5002228
:1032F000002340F66A14A14200D100BF0A12012443
:103300009440A3B2DC43048010BD000000380140AB
:103310000044004000480040004C00400050004085
:10332000704700000FB4044910B503AA029800F0DA
:1033300035FB10BC5DF814FB580200202DE9F0416C
:103340000646002410687529314616A510D0AFF343
:103350000080002802DA404213A507E031688A079E
:1033600001D512A502E0490704D511A5012401E009
:10337000AFF3008000210A2206F1240709E0B0FB28
:10338000F2FCB0FBF2F302FB1C003030785418461C
:10339000491C0028F3D123462A463046BDE8F041B7
:1033A00000F093B8000000002D0000002B0000008A
:1033B000200000002DE9F0474FF0000A894604463E
:1033C000C0F820A02046E1688847002876D025284C
:1033D00006D0D4E901219047206A401C2062F1E721
:1033E000E168204600258847C4F81CA0064600274F
:1033F000C4F818A02A2E09D0304601F047F838B397
:1034000004EB8708303EC8F8186019E059F8041B2F
:10341000204604EB87029161E1688847012F064648
:1034200018D1E069002820DA25F020051DE0D8F841
:10343000180000EB800006EB40003038C8F8180098
:103440002046E1688847064601F020F80028EED1C2
:10345000012F0AD02E2E08D12046E16888477F1C14
:103460000646022F45F02005C4DBA069002803DAD8
:10347000404245F00105A061E80701D025F01005A4
:10348000B6B1A6F14100192802D8203645F40065EE
:103490004A463146204625604D46FCF793FE58B11A
:1034A000012806D0ED1D25F0070000F1080989E785
:1034B00004E005F1040985E730468AE7206ABDE8A3
:1034C000F08770477047704770472DE9F0470D4609
:1034D00099469246044600F124080168880604D5FE
:1034E000E06921F01001216000E00120A84201DD27
:1034F000471B00E00027A1697A1902EB0900081AAE
:10350000A0612078C00602D42046AFF300800026D8
:1035100008E0D4E901211AF806009047206A401C0F
:10352000761C20624E45F4DB2078C0060AD5204682
:10353000AFF3008006E0D4E9012130209047206AF3
:10354000401C2062381EA7F10107F4DC07E0D4E933
:10355000012118F805009047206A401C2062281EAF
:10356000A5F10105F3DC2046AFF3008020780006CA
:1035700002D50220BDE8F0870120FBE770472DE966
:10358000FF4F0C461E464FF0FF378BB0D2E90001CB
:10359000DDF860800A908A46C1F30A5505B93D46B8
:1035A000002108464FF00000BAF1000F00F440007F
:1035B00005DA00EB80004FF4400101EA50004FEAC9
:1035C0009059B9F1010F00DDB9460A9850EA4A0056
:1035D0000ED044F61050A5F2FF3545432F14B8F134
:1035E000000F1ED07542291E1EDDC9F100021CE02D
:1035F000B8F1010F4FF0000001D0302103E0F24399
:1036000005E02154401CB042FBDB30460022002183
:1036100021540B99C1F80880C1E900200FB0BDE822
:10362000F08FBD1B6D1CDEE74A4600DA694206A832
:1036300000F068FA06AB93E8070003AB83E80700E5
:1036400050460A9900F046FB8DE80700A0F50050AF
:103650001F3800900398002D0ADD42F21F014A46F0
:103660000844002303A90390684600F0AFFD09E079
:10367000A0F500504A461F38002303A9039068466E
:1036800000F0B9FD8DE807000004000C03D04FF0F6
:10369000FF30410800E01046B8F1000F03D00022CF
:1036A000009215461EE0751E05D400F08DF93032EB
:1036B00062556D1EF9D5B3460122084302D000229F
:1036C0007F1C04E02078302801D100227F1E002AD0
:1036D000099784D01DE0112D07DA00F075F930321A
:1036E00062556D1C50EA0102F5D1084302D00098E2
:1036F000C8B10EE00021681E05E0235C625C6354E3
:103700002254401E491C8142F7DBAB46A81B401ED9
:103710000990002004F80B000B98099AC0F8088063
:10372000C0E9002B7AE711264FF0000857E72DE992
:10373000F04F88460446D21D22F0070191B0D1E92E
:103740000001CDE90A0100F08DFE02460B98C00F82
:1037500001D02D2007E02068810701D52B2002E051
:10376000202101EAC000032A099001D0072A05DBC5
:1037700003464146204600F085F90BE1207880069B
:1037800001D5E06900E00620B8F1650F814606D05A
:10379000B8F1660F18D0B8F1670F70D131E0002092
:1037A000B9F1110F009001DB112301E009F10103D0
:1037B0000AAA01A90CA8FFF7E2FEDDE90C700026B9
:1037C00009F10105834647E001204B4600904FF088
:1037D00000470AAA01A90CA8FFF7D1FEDDE90DB048
:1037E0000C995D46002610B909F101000D18B9EBDE
:1037F000050003D4C0F1FF3609F10105A5EB09006E
:103800002BE0B9F1010F01DA4FF001090020B9F105
:10381000110F0090484601DD112300E003460AAA7B
:1038200001A90CA8FFF7ABFEDDE90C704D460026A0
:103830008346207800070AD4AB4500DA5D4601A82C
:10384000012D04DD411911F8011C302907D04F4525
:1038500002DA17F1040F04DA012082460FE06D1E30
:10386000EEE7002F02DCED1B3E4403E0781CA8428B
:1038700000DD7D1CB81B00F1010A4FF000472078E5
:10388000000703D4AA4501DB4FF0FF3A0021B7F14E
:10389000004F0DF143088DF8431024D002202B2354
:1038A000002F01DA7F422D230A21021EA0F1010020
:1038B00000DC5FB197FBF1FC97FBF1F201FB1C7C94
:1038C00017460CF1300C08F801CDEEE7A8F1010025
:1038D00003702188090501D5452100E06521A0F18B
:1038E000010800F8011C09980FA9A1EB0807FF1DAA
:1038F00000B10120411901EBEA70A1693844081AAE
:10390000401EA0612078C00602D42046AFF300809C
:10391000099828B1D4E901219047206A401C20620F
:103920002078C00622D52046AFF300801EE0002E8E
:1039300004DBB34502DD01A8805D00E03020D4E95E
:1039400001219047206A401C2062761CAAF10100E8
:103950005FEA000A0AD100F033F8C0680168405CF1
:10396000D4E901219047206A401C2062281EA5F15D
:103970000105DCDC07E0D4E9012118F8010B9047D0
:10398000206A401C2062381EA7F10107F3DC2046A4
:10399000AFF30080032011B041E60000074B70B583
:1039A0000D467B4400F05BF80446284600F01CF905
:1039B00010B14FF0FF3070BD204670BDD3DAFFFF6D
:1039C00000487047D840002030B5B0F10A024FEAF5
:1039D000900E71F100034EEA817EB0EB0E0061EBB8
:1039E00091014FEA101E4EEA017E10EB0E0041EBF2
:1039F00011114FEA102E4EEA016E10EB0E0041EB52
:103A000011214FEA104E4EEA014E10EB0E0041EB31
:103A10001141401841F100014FEAD00040EA4170E5
:103A20004FEAD10110EB80054FEA810444EA90741B
:103A300044EB01046D1944EB0404521BA3414FF005
:103A4000000348BF0A3200D530BD401C41F10001DF
:103A500030BD000001694A1C02610878704700B55A
:103A60008FB0CDE901310021059105497944CDE9B7
:103A7000031011466846FFF79DFC0FB000BD000023
:103A8000E5FFFFFF2DE9F0411F46044603260168CC
:103A9000072A01F4006004DB08B116A505E016A5AD
:103AA00003E008B115A500E015A521F01000206085
:103AB000A069C01EA0610FB1401EA0612046AFF3F7
:103AC00000804FB1D4E9012138469047206A401C5C
:103AD0002062C01C206206E0206AFAE7D4E90121D6
:103AE00015F8010B9047761EF8D22046AFF3008000
:103AF000BDE8F0814E414E006E616E00494E4600B9
:103B0000696E66002DE9F047814616468AB0354851
:103B100078440DC88DE80D0032487844801C03AC11
:103B20000DC884E80D0041F69B300844372190FB16
:103B3000F1F290FBF1F5A5F1800501FB12041B3CAD
:103B400002D56442012000E00020DFF898A0804602
:103B50000027FA44AAF1BE0A0EE0E0070AD0324676
:103B6000684607EB470101230AEB810100F043FBA4
:103B70008DE8070064107F1C002CEED1194F7F44A4
:103B8000AE3F19E0E80715D007EB04100DF1180A55
:103B900090E80E008AE80E00C068F04201D1981942
:103BA00008903246012306A903A800F024FB03ABCA
:103BB00083E807006D10641C002DE3D14FF0010372
:103BC00032466946B8F1000F03A802D000F0FEFAB1
:103BD00001E000F010FBC9E90001C9F808200AB0B3
:103BE000BDE8F087BC1D0000007B00F0800070473E
:103BF00000487047B84000207546FFF7F9FFAE4611
:103C000005006946534620F00700854618B020B5E8
:103C1000FDF774FEBDE820404FF000064FF00007AE
:103C20004FF000084FF0000B21F00701AC46ACE864
:103C3000C009ACE8C009ACE8C009ACE8C0098D46D1
:103C4000704710B50446AFF300802046BDE8104031
:103C5000FCF7D5BA4FF0013C50F8042B51F8043B67
:103C60009A4221D1A2EB0C03934313EACC1317D150
:103C700050F8042B51F8043B9A4215D1A2EB0C03E7
:103C8000934313EACC130BD150F8042B51F8043BA7
:103C90009A4209D1A2EB0C03934313EACC13DBD075
:103CA0004FF00000704700BFD01A01BAB1FA81F19D
:103CB00001F0180122FA01F0CB40C1F12001DBB282
:103CC000C0B2C01A2CFA01F3D11A914311EAC31100
:103CD000E6D170475FEA400C08BF91F0000F4FEA51
:103CE0008C234FEAC12243EA51514FEA1C5018BFBE
:103CF00000F5F0404FEA300018BF41F000415FEAA4
:103D00006C5C00F02980BCF1FF3F08BF40F08040B0
:103D10007047130C06BF12044FF0100C4FF0000C4C
:103D2000130E04BF12020CF1080C130F04BF120192
:103D30000CF1040C930F04BF92000CF1020CD30F92
:103D400004BF52000CF1010C11464FF00002A0F12B
:103D50001F00A0EB0C00704711F0004F08BF704728
:103D600031F000413FF4D5AF0B0C06BF09044FF012
:103D7000100C4FF0000C0B0E04BF09020CF1080CE4
:103D80000B0F04BF09010CF1040C8B0F04BF890059
:103D90000CF1020CCB0F04BF49000CF1010CCCF16B
:103DA0002003A0EB0C0022FA03F302FA0CF241EA22
:103DB000030100F10100704720F07F4C80EA03000E
:103DC00023F07F47ACEB070303F57C5300F0004082
:103DD00003F1FF032DE980494FEA154B09B44FEA7F
:103DE000144325EA0B4E24EA03480FF2042606EB9F
:103DF000132749083E785FEA320203FB0667C7F5DE
:103E0000000707FB06F64FEA54374FEAD64606F19D
:103E1000020607FB066CCCF1005C4FEA1C472CEA5B
:103E2000074C07FB06F40CFB06F504EB15464FEABE
:103E3000961634BF00204FF000404FEAD13706FB02
:103E400007FC4FEA1C4C0CFB0BF7D21B03FB0CF7D7
:103E500061EB07010CFB0EF7B0EB074072EB17426A
:103E60000CFB08F734BFA2EB0742B2EB074261EB51
:103E700017414FEA0C444FEA910706FB07FC4FEA53
:103E80001C4C0CFB0BF7B0EBC74072EB573203FB3B
:103E90000CF734BFA2EBC742B2EBC74261EB57311C
:103EA0000CFB0EF7B0EBC70072EB57720CFB08F778
:103EB00034BFA2EBC702B2EBC70261EB5771039F9D
:103EC0004FEA816141EA921104EBCC044FEAD13709
:103ED0004FEA826206FB07FC42EA90124FEA8060DA
:103EE0004FEA1C4C0CFB0BF7D21B03FB0CF761EBEE
:103EF00007010CFB0EF7B0EB074072EB17420CFB0F
:103F000008F734BFA2EB0742B2EB074261EB17415F
:103F10004FEA8C554FEA910704EB9C2406FB07FC03
:103F20004FEA1C4C0CFB0BF7B0EBC74072EB57325F
:103F300003FB0CF734BFA2EBC742B2EBC74261EB05
:103F400057310CFB0EF7B0EBC70072EB57720CFB4E
:103F500008F734BFA2EBC702B2EBC70261EB57719F
:103F600015EB4C254FEA816141EA92114FEA8262DA
:103F70004FEAD13742EA901206FB07FC44F10004F5
:103F80004FEA80604FEA1C4C0CFB0BF7D21B03FB83
:103F90000CF761EB07010CFB0EF7B0EB074072EB7F
:103FA00017420CFB08F734BFA2EB0742B2EB074203
:103FB00061EB174115EB1C154FEA813141EA924143
:103FC0004FEA823242EA90424FEA80304FEA0C7662
:103FD00044F1000448EA03434EEA0B484FF0000E58
:103FE000B2EB080C71EB030724BF624639464EEB77
:103FF0000E0E4FF0000B0018524149414BEB0B0BDA
:10400000B2EB080C71EB03077BF1000B24BF624697
:1040100039464EEB0E0E4FF0000B0018524149414D
:104020004BEB0B0BB2EB080C71EB03077BF1000BB6
:1040300024BF624639464EEB0E0E51EA020718BF06
:1040400046F0010616EB0E7655F1000254F1000120
:1040500003D5BDE88901BDE80088BDE88901BDE858
:104060000048B619524141EB0101A3F10103704729
:1040700080807F7E7D7C7B7A7978777676757473A5
:10408000727171706F6E6E6D6C6C6B6A6A69686864
:10409000676666656464636362616160605F5F5EFA
:1040A0005E5D5D5C5C5B5B5A5A5959585857575670
:1040B00056555555545453535252525151505050D5
:1040C0004F4F4F4E4E4D4D4D4C4C4C4B4B4B4A4A27
:1040D0004A4949494848484747474746464645456B
:1040E00045444444444343434342424242414141A4
:1040F000002B9C4630D477002BD01CB54FEA3707F5
:1041000003B44FF010004FF01001BAF1000F06D0C9
:10411000BCF1000FDCBF40F0080040F008014FF098
:1041200000000FBCBDE810400BF1010BBBF1010F0B
:1041300008BF5FEA170722BF12F1010211F1010166
:104140004FF0004143F1000300F0004043EA00005B
:104150007047F9D35708D0E746EA064613F1400FF7
:104160004FEA16461FDD13F1200FDFBF16430A4644
:10417000002120335B42BED0C3F1200746EA064649
:1041800002FA07F74FEA164646EA0706C3F1200788
:1041900022FA03F201FA07F721FA03F14FF00003C4
:1041A00042EA0702A7E746EA020646EA06464FEA5F
:1041B000164646EA0106BCBF46EA0646360C4FF0F4
:1041C00000034FF000024FF0000194E72DE9804C0E
:1041D0009A46934670B491E8380007C831EA400C1B
:1041E00048BF34EA430C03D5FFF7E6FDFFF780FF35
:1041F000F0BCBDE8008C2DE9804C9A46934670B423
:1042000091E8380007C810F0804F08BF13F0804FC6
:1042100003D100F005F8FFF76BFFF0BCBDE8008CA0
:1042200020F07F4780EA030023F07F4C07EB0C036C
:10423000A3F57C5300F00040A3F1FE0392F0000FC1
:1042400000F0B38095F0000F00F077802DE9014970
:104250004FEA11404FEA144621EA004800FB06FCF1
:1042600024EA064708FB06F607FB08F800FB07F7F9
:1042700018EB06484CEB164C4FEA124B18EB07486C
:104280004FEA15464CEB174022EA0B4E0BFB06FC9F
:1042900025EA06470EFB06F607FB0EFE0BFB07F7AB
:1042A0001EEB064E4CEB164C4FF000061EEB074E75
:1042B0004CEB174B18EB0B0840F1000018EB0E0B02
:1042C00058EB000840F100008F1A4FF000013CBF8E
:1042D000C943661B14BFB5EB040C00213CBFC943A6
:1042E000F61B4FEA17444EEA8E0E27EA04454FEAC2
:1042F0001C4704FB07622CEA074C05FB07F70CFB85
:1043000005F604FB0CFC16EB074642EB174216EBD6
:104310000C4642EB1C421BEB060658EB02024141E5
:1043200046EA9E0601D5BDE80189B619524141EB26
:104330000101A3F10103BDE801894FEA14454FEAE9
:10434000114724EA054621EA074C05FB07F406FB62
:1043500007F70CFB06F105FB0CFC11EB074144EBE6
:1043600017444FEA124711EB0C4144EB1C4422EA7C
:10437000074C05FB07F206FB07F70CFB06F605FBEF
:104380000CFC16EB074642EB174216EB0C4642EBD1
:104390001C456A1854F1000148BF7047B6195241D4
:1043A00041EB0101A3F10103704795F0000F37D0F5
:1043B0004FEA11424FEA144721EA024624EA074C29
:1043C00002FB07F106FB07F70CFB06F402FB0CFCF3
:1043D00014EB074441EB17414FEA154714EB0C442B
:1043E00041EB1C4125EA074C02FB07F506FB07F7EA
:1043F0000CFB06F602FB0CFC16EB074645EB1745DB
:1044000016EB0C4645EB1C42121951F1000148BF56
:104410007047B619524141EB0101A3F10103704706
:104420004FEA14454FEA114724EA054621EA074CB2
:1044300005FB07F106FB07F70CFB06F24FF0000641
:1044400005FB0CFC12EB074241EB174112EB0C424F
:1044500051EB1C4148BF7047921841EB0101A3F199
:1044600001037047490050EAC12018BF04204A0DDB
:1044700018BF40F0010040F2FF72B2EB515F08BF7D
:1044800040F00200012808BF0520704730380A2894
:1044900001D20120704700207047000010B50029AC
:1044A0000AD00878002807D005487844FFF7D2FBE7
:1044B000002801D0002010BD0248784410BD000043
:1044C0005E140000561400000808A0F500114FEA21
:1044D0003101704743004FEAD30C4FEA3C0C434094
:1044E0001FBF40070CF1605113F0FE4F70471CF0E6
:1044F000006F03D100200CF0004170470CF0004326
:1045000043EA507010B540EACC0000F06AF900BFF1
:10451000000000924FEA0001FFF7D6BF4FF00041C4
:104520004FF00000A1F50021704700004FF47F0C10
:104530001CEAD0121EBF1CEAD11392EA0C0F93EAB8
:104540000C0F00F0858090EA010F48BF42F48072A2
:1045500040F4000C41F400002CF07F4120F07F403B
:1045600000B58142A2EB03020FF2081CACEB504EE7
:10457000C0F100009EF800E04FEA4E0E00FB0EFC7A
:1045800038BF49004FEA2C1C02F5FA020CFB0EF36F
:104590004FEACE1E4FEA112C4FEAC1210EEB635EAB
:1045A00042EB22420EFB0CFC4FEA1C5300FB0311B2
:1045B0004FEA112C4FEA01310EFB0CFC4FEADC4CA8
:1045C00000FB0C11C14228BF09184CEB03335DF806
:1045D00004EB10EB410143EBC250B2F57C0F38BF46
:1045E000704729D512F0F00F1CBF00F1C04000F059
:1045F00000407047008182838485868788898B8C00
:104600008D8E8F919293959697999A9C9D9FA0A23B
:10461000A3A5A7A8AAACAEB0B2B3B5B7B9BCBEC08B
:10462000C2C5C7C9CCCED1D4D7D9DCDFE2E6E9EC2C
:10463000F0F3F7FAFE0000004FEA400C0CF1807C2A
:10464000BCF17E4F28BF7047B0F1C04000F00FB9F9
:1046500090EA010F0CEAD11348BF42F48072624520
:1046600038BF634507D213F47F0F16D080EA0100EC
:1046700000F00040704710B500F0B3F8097EFC3E32
:1046800000F005B880EA010000F00040704780EAC1
:10469000010000F0004000F0EAB812F47F0F04BF00
:1046A0000248704780EA010000F0E1B80000C07FD6
:1046B00010F0004148BF4042B0FA80F310FA03F214
:1046C000C3F19D030BD051EAC35101EB12205306F5
:1046D00038BF704700F1010008BF20F001007047AB
:1046E0004FF47F0C1CEAD0121EBF1CEAD11392EAD1
:1046F0000C0F93EA0C0F00F0478090EA010F48BFBF
:1047000042F480724FF0004C4CEA00204CEA012148
:1047100002EB0302A0FB0113A2F50002002918BF5F
:1047200043F001035B0028BF4FEA330342EB224210
:104730005FEA132C4CEBC2502EBFBCEB436FB2F5BB
:104740007C0F70474FEA036CBCF1004F08BF20F0AC
:104750000100B2F57C0F38BF70470BD582F0FF0225
:1047600012F5803FC8BF704700F1C040D8BF00F0CD
:104770000040704700F5000C5FEA4C0C48BF7047E2
:10478000B0F1C04000F073B890EA010F0CEAD11309
:1047900048BF42F48072624538BF634504D280EA64
:1047A000010000F00040704710B500F01AF800BF9B
:1047B0008900013E00F007B800F009B85FEA410C3B
:1047C0005FEA1C6C08D080EA010000F050B85FEA94
:1047D000400C5FEA1C6CF6D14FF00040A0F5800061
:1047E00070470EF1020E2EF0030E5EF8044B2442C9
:1047F00004D44FEA4102B2F17F4F11D84FEA40038F
:10480000B3F17F4F0CD80ED14FEAD07CB2F17F4F7D
:104810000CEB4C0C0CF1020C08BF4CEBD17C04E00F
:104820004FF0080C01E04FEAD17C0CEB4C0324FA6A
:1048300003F404F00704B4F1040C06D20EEB840C6C
:10484000BDE810404CF0010C6047DFE80CF00708B1
:1048500002024FF00040A0F5800010BD0846420063
:1048600018BFD2F1807288BF00F0004010BDFF2158
:1048700041EAD050C0057047FEF759BF0000000064
:1048800000000000002F00000000070007000014D7
:104890007F147F1400242A7F2A12006264081323E5
:1048A00000364955225000000503000000001C227C
:1048B0004100000041221C000014083E08140008BA
:1048C000083E0808000000A060000008080808086A
:1048D000000060600000002010080402003E514902
:1048E000453E0000427F40000042615149460021A0
:1048F00041454B31001814127F10002745454539BA
:10490000003C4A4949300001710905030036494914
:10491000493600064949291E0000363600000000CD
:104920005636000000081422410000141414141418
:1049300000004122140800020151090600324959C1
:10494000513E007C1211127C007F49494936003EDD
:1049500041414122007F4141221C007F4949494198
:10496000007F09090901003E4149497A007F080892
:10497000087F0000417F4100002040413F01007F4F
:1049800008142241007F40404040007F020C027F1B
:10499000007F0408107F003E4141413E007F09092D
:1049A0000906003E4151215E007F09192946004653
:1049B000494949310001017F0101003F4040403F2A
:1049C000001F2040201F003F4038403F0063140874
:1049D000146300070870080700615149454300004F
:1049E0007F41410000552A552A55000041417F0072
:1049F0000004020102040040404040400000010267
:104A00000400002054545478007F4844443800384F
:104A10004444442000384444487F003854545418D7
:104A200000087E0901020018A4A4A47C007F0804E9
:104A300004780000447D4000004080847D00007FB9
:104A4000102844000000417F4000007C04180478D6
:104A5000007C0804047800384444443800FC2424D2
:104A600024180018242418FC007C080404080048BA
:104A70005454542000043F444020003C4040207CDB
:104A8000001C2040201C003C4030403C00442810CA
:104A90002844001CA0A0A07C004464544C4414147E
:104AA00014141414000000000000000000000000B6
:104AB00000000000000000F80000000000000033CB
:104AC0003000000000100C06100C06000000000072
:104AD0000000000040C07840C0784000043F04045B
:104AE0003F040400007088FC08300000001820FF1C
:104AF000211E0000F008F000E018000000211C0357
:104B00001E211E0000F00888700000001E212324D2
:104B10001927211010160E000000000000000000F0
:104B200000000000000000E0180402000000000780
:104B30001820400000020418E00000000040201887
:104B400007000000404080F0804040000202010F5A
:104B500001020200000000F0000000000101011F3E
:104B600001010100000000000000000080B07000A2
:104B70000000000000000000000000000001010132
:104B800001010101000000000000000000303000C1
:104B9000000000000000000080601804006018069B
:104BA0000100000000E010080810E000000F1020D5
:104BB00020100F00001010F8000000000020203F1F
:104BC00020200000007008080888700000302824A9
:104BD000222130000030088888483000001820204A
:104BE00020110E000000C02010F80000000704246F
:104BF000243F240000F808888808080000192120B4
:104C000020110E0000E0108888180000000F11200D
:104C100020110E0000380808C83808000000003FC6
:104C2000000000000070880808887000001C222125
:104C300021221C0000E010080810E00000003122D2
:104C400022110F00000000C0C00000000000003072
:104C500030000000000000800000000000008060C4
:104C60000000000000008040201008000001020445
:104C7000081020004040404040404000040404042C
:104C800004040400000810204080000000201008E8
:104C900004020100007048080808F000000000301D
:104CA00036010000C030C828E810E00007182724AB
:104CB00023140B000000C038E0000000203C230259
:104CC0000227382008F8888888700000203F2020BC
:104CD00020110E00C03008080808380007182020EE
:104CE0002010080008F808080810E000203F2020E5
:104CF00020100F0008F88888E8081000203F2020C6
:104D00002320180008F88888E8081000203F2000B9
:104D100003000000C03008080838000007182020F1
:104D2000221E020008F808000008F808203F2101B0
:104D300001213F20000808F8080800000020203F5B
:104D40002020000000000808F8080800C0808080CB
:104D50007F00000008F888C028180800203F2001C4
:104D60002638200008F8080000000000203F20201E
:104D70002020300008F8F800F8F80800203F003F35
:104D8000003F200008F830C00008F808203F20004D
:104D900007183F00E01008080810E0000F1020205E
:104DA00020100F0008F808080808F000203F210133
:104DB00001010000E01008080810E0000F1824248A
:104DC00038504F0008F8888888887000203F2000FD
:104DD000030C3020007088080808380000382021B3
:104DE00021221C00180808F8080818000000203FBD
:104DF0002000000008F808000008F808001F202024
:104E000020201F000878880000C8380800000738F4
:104E10000E010000F80800F80008F800033C070045
:104E2000073C0300081868808068180820302C03AD
:104E3000032C30200838C800C83808000000203F84
:104E40002000000010080808C83808002038262173
:104E500020201800000000FE020202000000007F77
:104E600040404000000C30C0000000000000000185
:104E70000638C00000020202FE0000000040404070
:104E80007F00000000000402020204000000000095
:104E90000000000000000000000000008080808012
:104EA00080808080000202040000000000000000FA
:104EB0000000000000008080808000000019242293
:104EC00022223F2008F8008080000000003F1120CF
:104ED00020110E000000008080800000000E1120D4
:104EE00020201100000000808088F800000E1120B2
:104EF00020103F200000808080800000001F2222C0
:104F000022221300008080F0888888180020203F2B
:104F1000202000000000808080808000006B94943E
:104F20009493600008F8008080800000203F2100FA
:104F300000203F2000809898000000000020203FC3
:104F400020200000000000809898000000C08080B1
:104F5000807F000008F8000080808000203F24024D
:104F60002D302000000808F8000000000020203F3D
:104F7000202000008080808080808000203F2000F2
:104F80003F20003F8080008080800000203F210083
:104F900000203F200000808080800000001F202033
:104FA00020201F00808000808000000080FFA12062
:104FB00020110E000000008080808000000E112073
:104FC00020A0FF80808080008080800020203F2102
:104FD00020000100000080808080800000332424B5
:104FE00024241900008080E0808000000000001F61
:104FF000202000008080000000808000001F202012
:1050000020103F20808080000080808000010E30D2
:105010000806010080800080008080800F300C0333
:105020000C300F0000808000808080000020312E36
:105030000E312000808080000080808080818E7012
:105040001806010000808080808080000021302CC4
:105050002221300000000000807C020200000000DD
:10506000003F404000000000FF0000000000000082
:10507000FF0000000002027C800000000040403F72
:10508000000000000006010102020404000000000C
:10509000000000004042CC0000E2222A2AF22A2628
:1050A00022E00000000000000000000000000000FE
:1050B0000000000080403F4080FF898989BF89A9A6
:1050C000C9BF8000000000000000000000000000D8
:1050D00000000000404042CC008282FE828202FE3C
:1050E00000000000000000000000000000000000C0
:1050F000000000000000007F201000FF0000000FF3
:105100003040F80000000000000000000000000037
:1051100000000000000000FE92929292929292FE95
:10512000000000000000000000000000000000007F
:105130000000000040424458407F4040407F4050C3
:105140004846400000000000000000000000000091
:105150000000000040404242424242C242424242BB
:10516000424040000000000000000000000000007D
:1051700000000000201008060040807F00000002B0
:1051800004083000000000000000000000000000E3
:105190000000000000007E92929292929292929E63
:1051A00080E000000000000000000000000000009F
:1051B00000000000088848281E0808080808FE08A3
:1051C00008080800000000000000000000000000C7
:1051D00000000000201808EAACA8A8AFA8A8ACEA14
:1051E0000828180000000000000000000000000077
:1051F0000000000000003E02020202FF0202122232
:105200001E00000000000000000000000000000080
:105210000000000000020202028242F20E428202FC
:10522000020200000000000000000000000000007A
:105230000000000010080402010000FF000000014F
:10524000020C000000000000000000000000000050
:10525000000000000000FC2424242526242424FC33
:10526000000000000000000000000000000000003E
:10527000000000000000FF814121030509112945BC
:1052800042808000000000000000000000000000DC
:10529000000000000000007E424242424242427E44
:1052A00000000000000000000000000000000000FE
:1052B0000000000000FE424242FE000000FE4242AA
:1052C00042FE00000000000000000000000000009E
:1052D0000000000090523410FF10345280708F088C
:1052E00008F80800000000000000000000000000B6
:1052F00000000000829A566322528E008040330CD8
:1053000033408000000000000000000000000000AA
:1053100000000000202020BEAAAAAAAAAAAAAABE0B
:10532000202020000000000000000000000000001D
:1053300000000000008080AFAAAAAAFFAAAAAAAF14
:10534000808000000000000000000000000000005D
:10535000000000000000FC04D4545454D4047F84A2
:10536000C53604000000000000000000000000003E
:10537000000000008866010063828292AB8482C1D3
:105380000224CF0000000000000000000000000028
:10539000000000000000FC242424FC252624FC241A
:1053A00024240400000000000000000000000000B1
:1053B0000000000040308F80844C55252525554C39
:1053C000808080000000000000000000000000005D
:1053D00000000000FC0404FC00E02F29E909E92991
:1053E0002FE00000000000000000000000000000AE
:1053F000000000000F04044F4425150D05FE0D1597
:1054000025454400000000000000000000000000EE
:10541000000000000414D454545454DF5454545421
:10542000D414040000000000000000000000000090
:105430000000000080601F0202020203020202025A
:105440000300000000000000000000000000000059
:105450000000000000020212620202FE020242325A
:105460000202000000000000000000000000000038
:105470000000000001010101010101FF0101010122
:105480000101010000000000000000000000000019
:10549000000000001088C42308F493F29AF600403C
:1054A00044C44400000000000000000000000000B0
:1054B000000000000100FF001097543F5497104077
:1054C000807F0000000000000000000000000000DD
:1054D0000000000090523410FF10345280708F088A
:1054E00008F80800000000000000000000000000B4
:1054F00000000000829A566322528E008040330CD6
:1055000033408000000000000000000000000000A8
:10551000000000001010FF109000FE929292F29294
:10552000929E8000000000000000000000000000CB
:105530000000000042827F0180601F00FC4447445D
:1055400044FC00000000000000000000000000001B
:10555000000000000000101098A44744A4540C045C
:10556000000000000000000000000000000000003B
:10557000000000000081898944444A312111090555
:105580000300000000000000000000000000000018
:10559000000000002424A4FE232200F01010FF10BD
:1055A00010F00000000000000000000000000000FB
:1055B00000000000080601FF010600070202FF02CA
:1055C00002070000000000000000000000000000D2
:1055D0000000000000007E92929292929292929E1F
:1055E00080E000000000000000000000000000005B
:1055F00000000000088848281E0808080808FE085F
:105600000808080000000000000000000000000082
:1056100000000000201808EAACA8A8AFA8A8ACEACF
:105620000828180000000000000000000000000032
:105630000000000000003E02020202FF02021222ED
:105640001E0000000000000000000000000000003C
:10565000000000001060028C00FE02F202FE00F862
:1056600000FF00000000000000000000000000003B
:105670000000000004047E018047300F102700471F
:10568000807F00000000000000000000000000001B
:1056900000000000404042CC009090909090FF109D
:1056A00011161000000000000000000000000000C3
:1056B000000000000000003F1028603F1010010EA5
:1056C0003040F0000000000000000000000000007A
:1056D00000000000100C0424242425262424242463
:1056E00004140C0000000000000000000000000096
:1056F0000000000000818141310F0101017F8181A3
:1057000081F1000000000000000000000000000027
:10571000000000000000F8888888880808FF080951
:105720000AC808000000000000000000000000009F
:105730000000000080601F0010201F80402116180C
:105740002641F800000000000000000000000000FA
:10575000000000000484E45C44C42010E82724E432
:10576000342CE000000000000000000000000000F9
:105770000000000002017F10103F80601F09093FF8
:1057800049897F00000000000000000000000000C8
:1057900000000000404042CC0000000000FF00007C
:1057A00000000000000000000000000000000000F9
:1057B000000000000000003F904820180700071874
:1057C00020408000000000000000000000000000F9
:1057D000000000000000E28282828282828282FED9
:1057E00000000000000000000000000000000000B9
:1057F0000000000000003F4040404040404040402A
:1058000040780000000000000000000000000000E0
:10581000000000002030AC63201880824222121A5F
:105820002642800000000000000000000000000090
:1058300000000000226722121212404242427E42C1
:105840004242400000000000000000000000000094
:105850000000000002400000000000A00000000066
:1058600005400000000000C8000000000C400000DF
:105870000000409C00000000194000000020BCBE59
:105880000000000034400000BFC91B8E000000046F
:10589000B5400000504BCFD06607E2CF01000000BA
:1058A0006C4100003E8251AADFEEA73401000000E7
:1058B000D9420000DCB5A0E23A301F97FFFFFFFF9E
:1058C000B4450000FD25A0C8E9A3C14FFFFFFFFFBD
:1058D000FF3F00000000008000000000FF3F0000CC
:1058E0000000008000000000245900080000002093
:1058F0007C0200006C010008645900087C02002052
:105900009C440000A80100081C00000043000000A7
:10591000F8FFFFFF0C0000000E0000000F00000069
:105920002E0000003144B0000143900194A24A04CB
:105930004A01020304060708090903FF570101FF92
:10594000F195D50800080929666100636C006F6B4A
:1059500010110102030401020304060708090204EE
:045960000608000035
:0400000508000131BD
:00000001FF
